{
  "contractName": "EscrowFactory",
  "abi": [
    {
      "inputs": [],
      "stateMutability": "nonpayable",
      "type": "constructor"
    },
    {
      "anonymous": false,
      "inputs": [
        {
          "indexed": true,
          "internalType": "bytes32",
          "name": "role",
          "type": "bytes32"
        },
        {
          "indexed": true,
          "internalType": "bytes32",
          "name": "previousAdminRole",
          "type": "bytes32"
        },
        {
          "indexed": true,
          "internalType": "bytes32",
          "name": "newAdminRole",
          "type": "bytes32"
        }
      ],
      "name": "RoleAdminChanged",
      "type": "event"
    },
    {
      "anonymous": false,
      "inputs": [
        {
          "indexed": true,
          "internalType": "bytes32",
          "name": "role",
          "type": "bytes32"
        },
        {
          "indexed": true,
          "internalType": "address",
          "name": "account",
          "type": "address"
        },
        {
          "indexed": true,
          "internalType": "address",
          "name": "sender",
          "type": "address"
        }
      ],
      "name": "RoleGranted",
      "type": "event"
    },
    {
      "anonymous": false,
      "inputs": [
        {
          "indexed": true,
          "internalType": "bytes32",
          "name": "role",
          "type": "bytes32"
        },
        {
          "indexed": true,
          "internalType": "address",
          "name": "account",
          "type": "address"
        },
        {
          "indexed": true,
          "internalType": "address",
          "name": "sender",
          "type": "address"
        }
      ],
      "name": "RoleRevoked",
      "type": "event"
    },
    {
      "inputs": [],
      "name": "DEFAULT_ADMIN_ROLE",
      "outputs": [
        {
          "internalType": "bytes32",
          "name": "",
          "type": "bytes32"
        }
      ],
      "stateMutability": "view",
      "type": "function"
    },
    {
      "inputs": [],
      "name": "SYSTEM_AGENT",
      "outputs": [
        {
          "internalType": "bytes32",
          "name": "",
          "type": "bytes32"
        }
      ],
      "stateMutability": "view",
      "type": "function"
    },
    {
      "inputs": [],
      "name": "SYSTEM_BUYER",
      "outputs": [
        {
          "internalType": "bytes32",
          "name": "",
          "type": "bytes32"
        }
      ],
      "stateMutability": "view",
      "type": "function"
    },
    {
      "inputs": [],
      "name": "SYSTEM_SELLER",
      "outputs": [
        {
          "internalType": "bytes32",
          "name": "",
          "type": "bytes32"
        }
      ],
      "stateMutability": "view",
      "type": "function"
    },
    {
      "inputs": [
        {
          "internalType": "uint256",
          "name": "",
          "type": "uint256"
        }
      ],
      "name": "agents",
      "outputs": [
        {
          "internalType": "address",
          "name": "",
          "type": "address"
        }
      ],
      "stateMutability": "view",
      "type": "function"
    },
    {
      "inputs": [
        {
          "internalType": "uint256",
          "name": "",
          "type": "uint256"
        }
      ],
      "name": "escrows",
      "outputs": [
        {
          "internalType": "contract Escrow",
          "name": "",
          "type": "address"
        }
      ],
      "stateMutability": "view",
      "type": "function"
    },
    {
      "inputs": [
        {
          "internalType": "bytes32",
          "name": "role",
          "type": "bytes32"
        }
      ],
      "name": "getRoleAdmin",
      "outputs": [
        {
          "internalType": "bytes32",
          "name": "",
          "type": "bytes32"
        }
      ],
      "stateMutability": "view",
      "type": "function"
    },
    {
      "inputs": [
        {
          "internalType": "bytes32",
          "name": "role",
          "type": "bytes32"
        },
        {
          "internalType": "address",
          "name": "account",
          "type": "address"
        }
      ],
      "name": "grantRole",
      "outputs": [],
      "stateMutability": "nonpayable",
      "type": "function"
    },
    {
      "inputs": [
        {
          "internalType": "bytes32",
          "name": "role",
          "type": "bytes32"
        },
        {
          "internalType": "address",
          "name": "account",
          "type": "address"
        }
      ],
      "name": "hasRole",
      "outputs": [
        {
          "internalType": "bool",
          "name": "",
          "type": "bool"
        }
      ],
      "stateMutability": "view",
      "type": "function"
    },
    {
      "inputs": [
        {
          "internalType": "bytes32",
          "name": "role",
          "type": "bytes32"
        },
        {
          "internalType": "address",
          "name": "account",
          "type": "address"
        }
      ],
      "name": "renounceRole",
      "outputs": [],
      "stateMutability": "nonpayable",
      "type": "function"
    },
    {
      "inputs": [
        {
          "internalType": "bytes32",
          "name": "role",
          "type": "bytes32"
        },
        {
          "internalType": "address",
          "name": "account",
          "type": "address"
        }
      ],
      "name": "revokeRole",
      "outputs": [],
      "stateMutability": "nonpayable",
      "type": "function"
    },
    {
      "inputs": [
        {
          "internalType": "bytes4",
          "name": "interfaceId",
          "type": "bytes4"
        }
      ],
      "name": "supportsInterface",
      "outputs": [
        {
          "internalType": "bool",
          "name": "",
          "type": "bool"
        }
      ],
      "stateMutability": "view",
      "type": "function"
    }
  ],
  "bytecode": "0x608060405234801561001057600080fd5b506111bf806100206000396000f3fe608060405234801561001057600080fd5b50600436106100b45760003560e01c8063513856c811610071578063513856c81461019f57806359aa866a146101cf57806362ec16fe146101ed57806391d148541461020b578063a217fddf1461023b578063d547741f14610259576100b4565b8063012f52ee146100b957806301ffc9a7146100e9578063248a9ca3146101195780632f2ff15d1461014957806336568abe1461016557806336acc9d714610181575b600080fd5b6100d360048036038101906100ce9190610bea565b610275565b6040516100e09190610dd0565b60405180910390f35b61010360048036038101906100fe9190610bc1565b6102b4565b6040516101109190610d9a565b60405180910390f35b610133600480360381019061012e9190610b5c565b61032e565b6040516101409190610db5565b60405180910390f35b610163600480360381019061015e9190610b85565b61034d565b005b61017f600480360381019061017a9190610b85565b610376565b005b6101896103f9565b6040516101969190610db5565b60405180910390f35b6101b960048036038101906101b49190610bea565b61041d565b6040516101c69190610d7f565b60405180910390f35b6101d761045c565b6040516101e49190610db5565b60405180910390f35b6101f5610480565b6040516102029190610db5565b60405180910390f35b61022560048036038101906102209190610b85565b6104a4565b6040516102329190610d9a565b60405180910390f35b61024361050e565b6040516102509190610db5565b60405180910390f35b610273600480360381019061026e9190610b85565b610515565b005b6001818154811061028557600080fd5b906000526020600020016000915054906101000a900473ffffffffffffffffffffffffffffffffffffffff1681565b60007f7965db0b000000000000000000000000000000000000000000000000000000007bffffffffffffffffffffffffffffffffffffffffffffffffffffffff1916827bffffffffffffffffffffffffffffffffffffffffffffffffffffffff1916148061032757506103268261053e565b5b9050919050565b6000806000838152602001908152602001600020600101549050919050565b6103568261032e565b610367816103626105a8565b6105b0565b610371838361064d565b505050565b61037e6105a8565b73ffffffffffffffffffffffffffffffffffffffff168173ffffffffffffffffffffffffffffffffffffffff16146103eb576040517f08c379a00000000000000000000000000000000000000000000000000000000081526004016103e290610e2d565b60405180910390fd5b6103f5828261072d565b5050565b7fe26612c5510afef89e10b6aff738cfb69bec6429cf8054f395b13070dce3be7681565b6002818154811061042d57600080fd5b906000526020600020016000915054906101000a900473ffffffffffffffffffffffffffffffffffffffff1681565b7fc959c297475598e40c71b7455404de9d31dd350a92ec7c0dead938a32e50c91681565b7f31a0814d66f4dee9c8949a2c780e07508f08615f200ebf6524799b95ffbe151281565b600080600084815260200190815260200160002060000160008373ffffffffffffffffffffffffffffffffffffffff1673ffffffffffffffffffffffffffffffffffffffff16815260200190815260200160002060009054906101000a900460ff16905092915050565b6000801b81565b61051e8261032e565b61052f8161052a6105a8565b6105b0565b610539838361072d565b505050565b60007f01ffc9a7000000000000000000000000000000000000000000000000000000007bffffffffffffffffffffffffffffffffffffffffffffffffffffffff1916827bffffffffffffffffffffffffffffffffffffffffffffffffffffffff1916149050919050565b600033905090565b6105ba82826104a4565b610649576105df8173ffffffffffffffffffffffffffffffffffffffff16601461080e565b6105ed8360001c602061080e565b6040516020016105fe929190610d45565b6040516020818303038152906040526040517f08c379a00000000000000000000000000000000000000000000000000000000081526004016106409190610deb565b60405180910390fd5b5050565b61065782826104a4565b61072957600160008084815260200190815260200160002060000160008373ffffffffffffffffffffffffffffffffffffffff1673ffffffffffffffffffffffffffffffffffffffff16815260200190815260200160002060006101000a81548160ff0219169083151502179055506106ce6105a8565b73ffffffffffffffffffffffffffffffffffffffff168173ffffffffffffffffffffffffffffffffffffffff16837f2f8788117e7eff1d82e926ec794901d17c78024a50270940304540a733656f0d60405160405180910390a45b5050565b61073782826104a4565b1561080a57600080600084815260200190815260200160002060000160008373ffffffffffffffffffffffffffffffffffffffff1673ffffffffffffffffffffffffffffffffffffffff16815260200190815260200160002060006101000a81548160ff0219169083151502179055506107af6105a8565b73ffffffffffffffffffffffffffffffffffffffff168173ffffffffffffffffffffffffffffffffffffffff16837ff6391f5c32d9c69d2a47ea670b442974b53935d1edc7fd64eb21e047a839171b60405160405180910390a45b5050565b6060600060028360026108219190610eca565b61082b9190610e74565b67ffffffffffffffff81111561086a577f4e487b7100000000000000000000000000000000000000000000000000000000600052604160045260246000fd5b6040519080825280601f01601f19166020018201604052801561089c5781602001600182028036833780820191505090505b5090507f3000000000000000000000000000000000000000000000000000000000000000816000815181106108fa577f4e487b7100000000000000000000000000000000000000000000000000000000600052603260045260246000fd5b60200101907effffffffffffffffffffffffffffffffffffffffffffffffffffffffffffff1916908160001a9053507f780000000000000000000000000000000000000000000000000000000000000081600181518110610984577f4e487b7100000000000000000000000000000000000000000000000000000000600052603260045260246000fd5b60200101907effffffffffffffffffffffffffffffffffffffffffffffffffffffffffffff1916908160001a905350600060018460026109c49190610eca565b6109ce9190610e74565b90505b6001811115610aba577f3031323334353637383961626364656600000000000000000000000000000000600f861660108110610a36577f4e487b7100000000000000000000000000000000000000000000000000000000600052603260045260246000fd5b1a60f81b828281518110610a73577f4e487b7100000000000000000000000000000000000000000000000000000000600052603260045260246000fd5b60200101907effffffffffffffffffffffffffffffffffffffffffffffffffffffffffffff1916908160001a905350600485901c945080610ab390610ff9565b90506109d1565b5060008414610afe576040517f08c379a0000000000000000000000000000000000000000000000000000000008152600401610af590610e0d565b60405180910390fd5b8091505092915050565b600081359050610b178161112d565b92915050565b600081359050610b2c81611144565b92915050565b600081359050610b418161115b565b92915050565b600081359050610b5681611172565b92915050565b600060208284031215610b6e57600080fd5b6000610b7c84828501610b1d565b91505092915050565b60008060408385031215610b9857600080fd5b6000610ba685828601610b1d565b9250506020610bb785828601610b08565b9150509250929050565b600060208284031215610bd357600080fd5b6000610be184828501610b32565b91505092915050565b600060208284031215610bfc57600080fd5b6000610c0a84828501610b47565b91505092915050565b610c1c81610f24565b82525050565b610c2b81610f36565b82525050565b610c3a81610f42565b82525050565b610c4981610fa2565b82525050565b6000610c5a82610e4d565b610c648185610e58565b9350610c74818560208601610fc6565b610c7d81611052565b840191505092915050565b6000610c9382610e4d565b610c9d8185610e69565b9350610cad818560208601610fc6565b80840191505092915050565b6000610cc6602083610e58565b9150610cd182611063565b602082019050919050565b6000610ce9601783610e69565b9150610cf48261108c565b601782019050919050565b6000610d0c601183610e69565b9150610d17826110b5565b601182019050919050565b6000610d2f602f83610e58565b9150610d3a826110de565b604082019050919050565b6000610d5082610cdc565b9150610d5c8285610c88565b9150610d6782610cff565b9150610d738284610c88565b91508190509392505050565b6000602082019050610d946000830184610c13565b92915050565b6000602082019050610daf6000830184610c22565b92915050565b6000602082019050610dca6000830184610c31565b92915050565b6000602082019050610de56000830184610c40565b92915050565b60006020820190508181036000830152610e058184610c4f565b905092915050565b60006020820190508181036000830152610e2681610cb9565b9050919050565b60006020820190508181036000830152610e4681610d22565b9050919050565b600081519050919050565b600082825260208201905092915050565b600081905092915050565b6000610e7f82610f98565b9150610e8a83610f98565b9250827fffffffffffffffffffffffffffffffffffffffffffffffffffffffffffffffff03821115610ebf57610ebe611023565b5b828201905092915050565b6000610ed582610f98565b9150610ee083610f98565b9250817fffffffffffffffffffffffffffffffffffffffffffffffffffffffffffffffff0483118215151615610f1957610f18611023565b5b828202905092915050565b6000610f2f82610f78565b9050919050565b60008115159050919050565b6000819050919050565b60007fffffffff0000000000000000000000000000000000000000000000000000000082169050919050565b600073ffffffffffffffffffffffffffffffffffffffff82169050919050565b6000819050919050565b6000610fad82610fb4565b9050919050565b6000610fbf82610f78565b9050919050565b60005b83811015610fe4578082015181840152602081019050610fc9565b83811115610ff3576000848401525b50505050565b600061100482610f98565b9150600082141561101857611017611023565b5b600182039050919050565b7f4e487b7100000000000000000000000000000000000000000000000000000000600052601160045260246000fd5b6000601f19601f8301169050919050565b7f537472696e67733a20686578206c656e67746820696e73756666696369656e74600082015250565b7f416363657373436f6e74726f6c3a206163636f756e7420000000000000000000600082015250565b7f206973206d697373696e6720726f6c6520000000000000000000000000000000600082015250565b7f416363657373436f6e74726f6c3a2063616e206f6e6c792072656e6f756e636560008201527f20726f6c657320666f722073656c660000000000000000000000000000000000602082015250565b61113681610f24565b811461114157600080fd5b50565b61114d81610f42565b811461115857600080fd5b50565b61116481610f4c565b811461116f57600080fd5b50565b61117b81610f98565b811461118657600080fd5b5056fea2646970667358221220c598ea04c2705c22a0462fe6b740e9db00ee748cabc41427c223effb318a09c764736f6c63430008040033",
  "immutableReferences": {},
  "source": "// SPDX-License-Identifier: MIT\r\npragma solidity ^0.8.4;\r\n\r\nimport \"./Escrow.sol\";\r\nimport \"@openzeppelin/contracts/access/AccessControl.sol\";\r\nimport \"@openzeppelin/contracts/utils/math/SafeMath.sol\";\r\n\r\ncontract EscrowFactory is AccessControl {\r\n    using SafeMath for uint256;\r\n\r\n    Escrow[] public escrows;\r\n    address[] public agents;\r\n\r\n    bytes32 public constant SYSTEM_AGENT = keccak256(\"SYSTEM_AGENT\");\r\n    bytes32 public constant SYSTEM_BUYER = keccak256(\"SYSTEM_BUYER\");\r\n    bytes32 public constant SYSTEM_SELLER = keccak256(\"SYSTEM_SELLER\");\r\n\r\n    constructor() {\r\n        // _setupRole(DEFAULT_ADMIN_ROLE, owner);\r\n        // _setupRole(SYSTEM_AGENT, owner);\r\n    }\r\n}\r\n",
  "sourcePath": "C:/Users/Administrator/Desktop/SCDP/escrow/contracts/EscrowFactory.sol",
  "compiler": {
    "name": "solc",
    "version": "0.8.4+commit.c7e474f2.Emscripten.clang"
  },
  "schemaVersion": "3.4.1",
  "updatedAt": "2021-06-09T01:51:45.072Z",
  "devdoc": {
    "kind": "dev",
    "methods": {
      "getRoleAdmin(bytes32)": {
        "details": "Returns the admin role that controls `role`. See {grantRole} and {revokeRole}. To change a role's admin, use {_setRoleAdmin}."
      },
      "grantRole(bytes32,address)": {
        "details": "Grants `role` to `account`. If `account` had not been already granted `role`, emits a {RoleGranted} event. Requirements: - the caller must have ``role``'s admin role."
      },
      "hasRole(bytes32,address)": {
        "details": "Returns `true` if `account` has been granted `role`."
      },
      "renounceRole(bytes32,address)": {
        "details": "Revokes `role` from the calling account. Roles are often managed via {grantRole} and {revokeRole}: this function's purpose is to provide a mechanism for accounts to lose their privileges if they are compromised (such as when a trusted device is misplaced). If the calling account had been granted `role`, emits a {RoleRevoked} event. Requirements: - the caller must be `account`."
      },
      "revokeRole(bytes32,address)": {
        "details": "Revokes `role` from `account`. If `account` had been granted `role`, emits a {RoleRevoked} event. Requirements: - the caller must have ``role``'s admin role."
      },
      "supportsInterface(bytes4)": {
        "details": "See {IERC165-supportsInterface}."
      }
    },
    "version": 1
  },
  "userdoc": {
    "kind": "user",
    "methods": {},
    "version": 1
  }
}