{
  "contractName": "Escrow",
  "abi": [
    {
      "anonymous": false,
      "inputs": [
        {
          "indexed": true,
          "internalType": "address",
          "name": "previousOwner",
          "type": "address"
        },
        {
          "indexed": true,
          "internalType": "address",
          "name": "newOwner",
          "type": "address"
        }
      ],
      "name": "OwnershipTransferred",
      "type": "event"
    },
    {
      "anonymous": false,
      "inputs": [
        {
          "indexed": true,
          "internalType": "bytes32",
          "name": "role",
          "type": "bytes32"
        },
        {
          "indexed": true,
          "internalType": "bytes32",
          "name": "previousAdminRole",
          "type": "bytes32"
        },
        {
          "indexed": true,
          "internalType": "bytes32",
          "name": "newAdminRole",
          "type": "bytes32"
        }
      ],
      "name": "RoleAdminChanged",
      "type": "event"
    },
    {
      "anonymous": false,
      "inputs": [
        {
          "indexed": true,
          "internalType": "bytes32",
          "name": "role",
          "type": "bytes32"
        },
        {
          "indexed": true,
          "internalType": "address",
          "name": "account",
          "type": "address"
        },
        {
          "indexed": true,
          "internalType": "address",
          "name": "sender",
          "type": "address"
        }
      ],
      "name": "RoleGranted",
      "type": "event"
    },
    {
      "anonymous": false,
      "inputs": [
        {
          "indexed": true,
          "internalType": "bytes32",
          "name": "role",
          "type": "bytes32"
        },
        {
          "indexed": true,
          "internalType": "address",
          "name": "account",
          "type": "address"
        },
        {
          "indexed": true,
          "internalType": "address",
          "name": "sender",
          "type": "address"
        }
      ],
      "name": "RoleRevoked",
      "type": "event"
    },
    {
      "inputs": [],
      "name": "DEFAULT_ADMIN_ROLE",
      "outputs": [
        {
          "internalType": "bytes32",
          "name": "",
          "type": "bytes32"
        }
      ],
      "stateMutability": "view",
      "type": "function",
      "constant": true
    },
    {
      "inputs": [],
      "name": "SYSTEM_AGENT",
      "outputs": [
        {
          "internalType": "bytes32",
          "name": "",
          "type": "bytes32"
        }
      ],
      "stateMutability": "view",
      "type": "function",
      "constant": true
    },
    {
      "inputs": [],
      "name": "SYSTEM_BUYER",
      "outputs": [
        {
          "internalType": "bytes32",
          "name": "",
          "type": "bytes32"
        }
      ],
      "stateMutability": "view",
      "type": "function",
      "constant": true
    },
    {
      "inputs": [],
      "name": "SYSTEM_SELLER",
      "outputs": [
        {
          "internalType": "bytes32",
          "name": "",
          "type": "bytes32"
        }
      ],
      "stateMutability": "view",
      "type": "function",
      "constant": true
    },
    {
      "inputs": [
        {
          "internalType": "uint256",
          "name": "",
          "type": "uint256"
        }
      ],
      "name": "contains",
      "outputs": [
        {
          "internalType": "bool",
          "name": "",
          "type": "bool"
        }
      ],
      "stateMutability": "view",
      "type": "function",
      "constant": true
    },
    {
      "inputs": [
        {
          "internalType": "uint256",
          "name": "",
          "type": "uint256"
        }
      ],
      "name": "escrows",
      "outputs": [
        {
          "internalType": "address",
          "name": "buyer",
          "type": "address"
        },
        {
          "internalType": "address",
          "name": "seller",
          "type": "address"
        },
        {
          "internalType": "uint256",
          "name": "percent",
          "type": "uint256"
        },
        {
          "internalType": "uint256",
          "name": "totalPrice",
          "type": "uint256"
        },
        {
          "internalType": "uint256",
          "name": "status",
          "type": "uint256"
        }
      ],
      "stateMutability": "view",
      "type": "function",
      "constant": true
    },
    {
      "inputs": [
        {
          "internalType": "bytes32",
          "name": "role",
          "type": "bytes32"
        }
      ],
      "name": "getRoleAdmin",
      "outputs": [
        {
          "internalType": "bytes32",
          "name": "",
          "type": "bytes32"
        }
      ],
      "stateMutability": "view",
      "type": "function",
      "constant": true
    },
    {
      "inputs": [
        {
          "internalType": "bytes32",
          "name": "role",
          "type": "bytes32"
        },
        {
          "internalType": "address",
          "name": "account",
          "type": "address"
        }
      ],
      "name": "grantRole",
      "outputs": [],
      "stateMutability": "nonpayable",
      "type": "function"
    },
    {
      "inputs": [
        {
          "internalType": "bytes32",
          "name": "role",
          "type": "bytes32"
        },
        {
          "internalType": "address",
          "name": "account",
          "type": "address"
        }
      ],
      "name": "hasRole",
      "outputs": [
        {
          "internalType": "bool",
          "name": "",
          "type": "bool"
        }
      ],
      "stateMutability": "view",
      "type": "function",
      "constant": true
    },
    {
      "inputs": [],
      "name": "owner",
      "outputs": [
        {
          "internalType": "address",
          "name": "",
          "type": "address"
        }
      ],
      "stateMutability": "view",
      "type": "function",
      "constant": true
    },
    {
      "inputs": [],
      "name": "renounceOwnership",
      "outputs": [],
      "stateMutability": "nonpayable",
      "type": "function"
    },
    {
      "inputs": [
        {
          "internalType": "bytes32",
          "name": "role",
          "type": "bytes32"
        },
        {
          "internalType": "address",
          "name": "account",
          "type": "address"
        }
      ],
      "name": "renounceRole",
      "outputs": [],
      "stateMutability": "nonpayable",
      "type": "function"
    },
    {
      "inputs": [
        {
          "internalType": "bytes32",
          "name": "role",
          "type": "bytes32"
        },
        {
          "internalType": "address",
          "name": "account",
          "type": "address"
        }
      ],
      "name": "revokeRole",
      "outputs": [],
      "stateMutability": "nonpayable",
      "type": "function"
    },
    {
      "inputs": [
        {
          "internalType": "bytes4",
          "name": "interfaceId",
          "type": "bytes4"
        }
      ],
      "name": "supportsInterface",
      "outputs": [
        {
          "internalType": "bool",
          "name": "",
          "type": "bool"
        }
      ],
      "stateMutability": "view",
      "type": "function",
      "constant": true
    },
    {
      "inputs": [
        {
          "internalType": "address",
          "name": "newOwner",
          "type": "address"
        }
      ],
      "name": "transferOwnership",
      "outputs": [],
      "stateMutability": "nonpayable",
      "type": "function"
    },
    {
      "inputs": [
        {
          "internalType": "address",
          "name": "_seller",
          "type": "address"
        },
        {
          "internalType": "uint256",
          "name": "_totalPrice",
          "type": "uint256"
        },
        {
          "internalType": "uint256",
          "name": "_percent",
          "type": "uint256"
        }
      ],
      "name": "initNewEscrowItem",
      "outputs": [],
      "stateMutability": "nonpayable",
      "type": "function"
    },
    {
      "inputs": [
        {
          "internalType": "uint256",
          "name": "_itemId",
          "type": "uint256"
        }
      ],
      "name": "buyItem",
      "outputs": [],
      "stateMutability": "payable",
      "type": "function",
      "payable": true
    },
    {
      "inputs": [
        {
          "internalType": "uint256",
          "name": "_itemId",
          "type": "uint256"
        }
      ],
      "name": "withdraw",
      "outputs": [],
      "stateMutability": "nonpayable",
      "type": "function"
    }
  ],
  "bytecode": "0x608060405234801561001057600080fd5b5060006100216100c460201b60201c565b9050806000806101000a81548173ffffffffffffffffffffffffffffffffffffffff021916908373ffffffffffffffffffffffffffffffffffffffff1602179055508073ffffffffffffffffffffffffffffffffffffffff16600073ffffffffffffffffffffffffffffffffffffffff167f8be0079c531659141344cd1fd0a4f28419497f9722a3daafe3b4186f6b6457e060405160405180910390a3506100cc565b600033905090565b612914806100db6000396000f3fe6080604052600436106101095760003560e01c8063715018a611610095578063aeb7950d11610064578063aeb7950d1461036f578063c34052e014610398578063d547741f146103d5578063e7fb74c7146103fe578063f2fde38b1461041a57610109565b8063715018a6146102c55780638da5cb5b146102dc57806391d1485414610307578063a217fddf1461034457610109565b80632f2ff15d116100dc5780632f2ff15d146101f257806336568abe1461021b57806336acc9d71461024457806359aa866a1461026f57806362ec16fe1461029a57610109565b8063012f52ee1461010e57806301ffc9a71461014f578063248a9ca31461018c5780632e1a7d4d146101c9575b600080fd5b34801561011a57600080fd5b5061013560048036038101906101309190611c1d565b610443565b604051610146959493929190611fef565b60405180910390f35b34801561015b57600080fd5b5061017660048036038101906101719190611bf4565b6104c9565b6040516101839190612042565b60405180910390f35b34801561019857600080fd5b506101b360048036038101906101ae9190611b8f565b610543565b6040516101c0919061205d565b60405180910390f35b3480156101d557600080fd5b506101f060048036038101906101eb9190611c1d565b610563565b005b3480156101fe57600080fd5b5061021960048036038101906102149190611bb8565b6109c7565b005b34801561022757600080fd5b50610242600480360381019061023d9190611bb8565b6109f0565b005b34801561025057600080fd5b50610259610a73565b604051610266919061205d565b60405180910390f35b34801561027b57600080fd5b50610284610a97565b604051610291919061205d565b60405180910390f35b3480156102a657600080fd5b506102af610abb565b6040516102bc919061205d565b60405180910390f35b3480156102d157600080fd5b506102da610adf565b005b3480156102e857600080fd5b506102f1610c19565b6040516102fe9190611fd4565b60405180910390f35b34801561031357600080fd5b5061032e60048036038101906103299190611bb8565b610c42565b60405161033b9190612042565b60405180910390f35b34801561035057600080fd5b50610359610cad565b604051610366919061205d565b60405180910390f35b34801561037b57600080fd5b5061039660048036038101906103919190611b40565b610cb4565b005b3480156103a457600080fd5b506103bf60048036038101906103ba9190611c1d565b610f4b565b6040516103cc9190612042565b60405180910390f35b3480156103e157600080fd5b506103fc60048036038101906103f79190611bb8565b610f6b565b005b61041860048036038101906104139190611c1d565b610f94565b005b34801561042657600080fd5b50610441600480360381019061043c9190611b17565b61120b565b005b6002818154811061045357600080fd5b90600052602060002090600502016000915090508060000160009054906101000a900473ffffffffffffffffffffffffffffffffffffffff16908060010160009054906101000a900473ffffffffffffffffffffffffffffffffffffffff16908060020154908060030154908060040154905085565b60007f7965db0b000000000000000000000000000000000000000000000000000000007bffffffffffffffffffffffffffffffffffffffffffffffffffffffff1916827bffffffffffffffffffffffffffffffffffffffffffffffffffffffff1916148061053c575061053b826113b4565b5b9050919050565b600060016000838152602001908152602001600020600101549050919050565b6105947f31a0814d66f4dee9c8949a2c780e07508f08615f200ebf6524799b95ffbe151261058f61141e565b610c42565b6105d3576040517f08c379a00000000000000000000000000000000000000000000000000000000081526004016105ca906121fa565b60405180910390fd5b6003600082815260200190815260200160002060009054906101000a900460ff16610633576040517f08c379a000000000000000000000000000000000000000000000000000000000815260040161062a9061217a565b60405180910390fd5b60006002828154811061066f577f4e487b7100000000000000000000000000000000000000000000000000000000600052603260045260246000fd5b9060005260206000209060050201905061068761141e565b73ffffffffffffffffffffffffffffffffffffffff168160010160009054906101000a900473ffffffffffffffffffffffffffffffffffffffff1673ffffffffffffffffffffffffffffffffffffffff1614610718576040517f08c379a000000000000000000000000000000000000000000000000000000000815260040161070f906120da565b60405180910390fd5b60006002811115610752577f4e487b7100000000000000000000000000000000000000000000000000000000600052602160045260246000fd5b81600401541415610798576040517f08c379a000000000000000000000000000000000000000000000000000000000815260040161078f9061215a565b60405180910390fd5b6002808111156107d1577f4e487b7100000000000000000000000000000000000000000000000000000000600052602160045260246000fd5b81600401541415610817576040517f08c379a000000000000000000000000000000000000000000000000000000000815260040161080e9061223a565b60405180910390fd5b60004790506000811161085f576040517f08c379a00000000000000000000000000000000000000000000000000000000081526004016108569061211a565b60405180910390fd5b600061088f60646108818560020154866003015461142690919063ffffffff16565b61143c90919063ffffffff16565b9050600081116108d4576040517f08c379a00000000000000000000000000000000000000000000000000000000081526004016108cb9061213a565b60405180910390fd5b60028081111561090d577f4e487b7100000000000000000000000000000000000000000000000000000000600052602160045260246000fd5b8360040181905550600061092e82856003015461145290919063ffffffff16565b905060008111610973576040517f08c379a000000000000000000000000000000000000000000000000000000000815260040161096a9061213a565b60405180910390fd5b6109c0818560010160009054906101000a900473ffffffffffffffffffffffffffffffffffffffff1673ffffffffffffffffffffffffffffffffffffffff1661146890919063ffffffff16565b5050505050565b6109d082610543565b6109e1816109dc61141e565b61155c565b6109eb83836115f9565b505050565b6109f861141e565b73ffffffffffffffffffffffffffffffffffffffff168173ffffffffffffffffffffffffffffffffffffffff1614610a65576040517f08c379a0000000000000000000000000000000000000000000000000000000008152600401610a5c9061227a565b60405180910390fd5b610a6f82826116d9565b5050565b7fe26612c5510afef89e10b6aff738cfb69bec6429cf8054f395b13070dce3be7681565b7fc959c297475598e40c71b7455404de9d31dd350a92ec7c0dead938a32e50c91681565b7f31a0814d66f4dee9c8949a2c780e07508f08615f200ebf6524799b95ffbe151281565b610ae761141e565b73ffffffffffffffffffffffffffffffffffffffff16610b05610c19565b73ffffffffffffffffffffffffffffffffffffffff1614610b5b576040517f08c379a0000000000000000000000000000000000000000000000000000000008152600401610b529061221a565b60405180910390fd5b600073ffffffffffffffffffffffffffffffffffffffff1660008054906101000a900473ffffffffffffffffffffffffffffffffffffffff1673ffffffffffffffffffffffffffffffffffffffff167f8be0079c531659141344cd1fd0a4f28419497f9722a3daafe3b4186f6b6457e060405160405180910390a360008060006101000a81548173ffffffffffffffffffffffffffffffffffffffff021916908373ffffffffffffffffffffffffffffffffffffffff160217905550565b60008060009054906101000a900473ffffffffffffffffffffffffffffffffffffffff16905090565b60006001600084815260200190815260200160002060000160008373ffffffffffffffffffffffffffffffffffffffff1673ffffffffffffffffffffffffffffffffffffffff16815260200190815260200160002060009054906101000a900460ff16905092915050565b6000801b81565b610cbc61141e565b73ffffffffffffffffffffffffffffffffffffffff16610cda610c19565b73ffffffffffffffffffffffffffffffffffffffff1614610d30576040517f08c379a0000000000000000000000000000000000000000000000000000000008152600401610d279061221a565b60405180910390fd5b60648110610d73576040517f08c379a0000000000000000000000000000000000000000000000000000000008152600401610d6a9061225a565b60405180910390fd5b60006040518060a00160405280600073ffffffffffffffffffffffffffffffffffffffff1681526020018573ffffffffffffffffffffffffffffffffffffffff16815260200183815260200184815260200160006002811115610dff577f4e487b7100000000000000000000000000000000000000000000000000000000600052602160045260246000fd5b8152509050610e2e7f31a0814d66f4dee9c8949a2c780e07508f08615f200ebf6524799b95ffbe1512856117bb565b600281908060018154018082558091505060019003906000526020600020906005020160009091909190915060008201518160000160006101000a81548173ffffffffffffffffffffffffffffffffffffffff021916908373ffffffffffffffffffffffffffffffffffffffff16021790555060208201518160010160006101000a81548173ffffffffffffffffffffffffffffffffffffffff021916908373ffffffffffffffffffffffffffffffffffffffff16021790555060408201518160020155606082015181600301556080820151816004015550506001600360006001600280549050610f2091906123ad565b815260200190815260200160002060006101000a81548160ff02191690831515021790555050505050565b60036020528060005260406000206000915054906101000a900460ff1681565b610f7482610543565b610f8581610f8061141e565b61155c565b610f8f83836116d9565b505050565b6003600082815260200190815260200160002060009054906101000a900460ff16610ff4576040517f08c379a0000000000000000000000000000000000000000000000000000000008152600401610feb9061217a565b60405180910390fd5b600060028281548110611030577f4e487b7100000000000000000000000000000000000000000000000000000000600052603260045260246000fd5b906000526020600020906005020190506000600281111561107a577f4e487b7100000000000000000000000000000000000000000000000000000000600052602160045260246000fd5b8160040154146110bf576040517f08c379a00000000000000000000000000000000000000000000000000000000081526004016110b6906120ba565b60405180910390fd5b80600301543414611105576040517f08c379a00000000000000000000000000000000000000000000000000000000081526004016110fc9061219a565b60405180910390fd5b61110d61141e565b8160000160006101000a81548173ffffffffffffffffffffffffffffffffffffffff021916908373ffffffffffffffffffffffffffffffffffffffff16021790555060016002811115611189577f4e487b7100000000000000000000000000000000000000000000000000000000600052602160045260246000fd5b816004018190555080600301543411156112075760006111b682600301543461145290919063ffffffff16565b9050611205818360000160009054906101000a900473ffffffffffffffffffffffffffffffffffffffff1673ffffffffffffffffffffffffffffffffffffffff1661146890919063ffffffff16565b505b5050565b61121361141e565b73ffffffffffffffffffffffffffffffffffffffff16611231610c19565b73ffffffffffffffffffffffffffffffffffffffff1614611287576040517f08c379a000000000000000000000000000000000000000000000000000000000815260040161127e9061221a565b60405180910390fd5b600073ffffffffffffffffffffffffffffffffffffffff168173ffffffffffffffffffffffffffffffffffffffff1614156112f7576040517f08c379a00000000000000000000000000000000000000000000000000000000081526004016112ee906120fa565b60405180910390fd5b8073ffffffffffffffffffffffffffffffffffffffff1660008054906101000a900473ffffffffffffffffffffffffffffffffffffffff1673ffffffffffffffffffffffffffffffffffffffff167f8be0079c531659141344cd1fd0a4f28419497f9722a3daafe3b4186f6b6457e060405160405180910390a3806000806101000a81548173ffffffffffffffffffffffffffffffffffffffff021916908373ffffffffffffffffffffffffffffffffffffffff16021790555050565b60007f01ffc9a7000000000000000000000000000000000000000000000000000000007bffffffffffffffffffffffffffffffffffffffffffffffffffffffff1916827bffffffffffffffffffffffffffffffffffffffffffffffffffffffff1916149050919050565b600033905090565b600081836114349190612353565b905092915050565b6000818361144a9190612322565b905092915050565b6000818361146091906123ad565b905092915050565b804710156114ab576040517f08c379a00000000000000000000000000000000000000000000000000000000081526004016114a2906121da565b60405180910390fd5b60008273ffffffffffffffffffffffffffffffffffffffff16826040516114d190611f85565b60006040518083038185875af1925050503d806000811461150e576040519150601f19603f3d011682016040523d82523d6000602084013e611513565b606091505b5050905080611557576040517f08c379a000000000000000000000000000000000000000000000000000000000815260040161154e906121ba565b60405180910390fd5b505050565b6115668282610c42565b6115f55761158b8173ffffffffffffffffffffffffffffffffffffffff1660146117c9565b6115998360001c60206117c9565b6040516020016115aa929190611f9a565b6040516020818303038152906040526040517f08c379a00000000000000000000000000000000000000000000000000000000081526004016115ec9190612078565b60405180910390fd5b5050565b6116038282610c42565b6116d557600180600084815260200190815260200160002060000160008373ffffffffffffffffffffffffffffffffffffffff1673ffffffffffffffffffffffffffffffffffffffff16815260200190815260200160002060006101000a81548160ff02191690831515021790555061167a61141e565b73ffffffffffffffffffffffffffffffffffffffff168173ffffffffffffffffffffffffffffffffffffffff16837f2f8788117e7eff1d82e926ec794901d17c78024a50270940304540a733656f0d60405160405180910390a45b5050565b6116e38282610c42565b156117b75760006001600084815260200190815260200160002060000160008373ffffffffffffffffffffffffffffffffffffffff1673ffffffffffffffffffffffffffffffffffffffff16815260200190815260200160002060006101000a81548160ff02191690831515021790555061175c61141e565b73ffffffffffffffffffffffffffffffffffffffff168173ffffffffffffffffffffffffffffffffffffffff16837ff6391f5c32d9c69d2a47ea670b442974b53935d1edc7fd64eb21e047a839171b60405160405180910390a45b5050565b6117c582826115f9565b5050565b6060600060028360026117dc9190612353565b6117e691906122cc565b67ffffffffffffffff811115611825577f4e487b7100000000000000000000000000000000000000000000000000000000600052604160045260246000fd5b6040519080825280601f01601f1916602001820160405280156118575781602001600182028036833780820191505090505b5090507f3000000000000000000000000000000000000000000000000000000000000000816000815181106118b5577f4e487b7100000000000000000000000000000000000000000000000000000000600052603260045260246000fd5b60200101907effffffffffffffffffffffffffffffffffffffffffffffffffffffffffffff1916908160001a9053507f78000000000000000000000000000000000000000000000000000000000000008160018151811061193f577f4e487b7100000000000000000000000000000000000000000000000000000000600052603260045260246000fd5b60200101907effffffffffffffffffffffffffffffffffffffffffffffffffffffffffffff1916908160001a9053506000600184600261197f9190612353565b61198991906122cc565b90505b6001811115611a75577f3031323334353637383961626364656600000000000000000000000000000000600f8616601081106119f1577f4e487b7100000000000000000000000000000000000000000000000000000000600052603260045260246000fd5b1a60f81b828281518110611a2e577f4e487b7100000000000000000000000000000000000000000000000000000000600052603260045260246000fd5b60200101907effffffffffffffffffffffffffffffffffffffffffffffffffffffffffffff1916908160001a905350600485901c945080611a6e90612492565b905061198c565b5060008414611ab9576040517f08c379a0000000000000000000000000000000000000000000000000000000008152600401611ab09061209a565b60405180910390fd5b8091505092915050565b600081359050611ad281612882565b92915050565b600081359050611ae781612899565b92915050565b600081359050611afc816128b0565b92915050565b600081359050611b11816128c7565b92915050565b600060208284031215611b2957600080fd5b6000611b3784828501611ac3565b91505092915050565b600080600060608486031215611b5557600080fd5b6000611b6386828701611ac3565b9350506020611b7486828701611b02565b9250506040611b8586828701611b02565b9150509250925092565b600060208284031215611ba157600080fd5b6000611baf84828501611ad8565b91505092915050565b60008060408385031215611bcb57600080fd5b6000611bd985828601611ad8565b9250506020611bea85828601611ac3565b9150509250929050565b600060208284031215611c0657600080fd5b6000611c1484828501611aed565b91505092915050565b600060208284031215611c2f57600080fd5b6000611c3d84828501611b02565b91505092915050565b611c4f816123e1565b82525050565b611c5e816123f3565b82525050565b611c6d816123ff565b82525050565b6000611c7e8261229a565b611c8881856122b0565b9350611c9881856020860161245f565b611ca18161251a565b840191505092915050565b6000611cb78261229a565b611cc181856122c1565b9350611cd181856020860161245f565b80840191505092915050565b6000611cea6020836122b0565b9150611cf58261252b565b602082019050919050565b6000611d0d6009836122b0565b9150611d1882612554565b602082019050919050565b6000611d30600a836122b0565b9150611d3b8261257d565b602082019050919050565b6000611d536026836122b0565b9150611d5e826125a6565b604082019050919050565b6000611d766008836122b0565b9150611d81826125f5565b602082019050919050565b6000611d996004836122b0565b9150611da48261261e565b602082019050919050565b6000611dbc6005836122b0565b9150611dc782612647565b602082019050919050565b6000611ddf6007836122b0565b9150611dea82612670565b602082019050919050565b6000611e02600b836122b0565b9150611e0d82612699565b602082019050919050565b6000611e25603a836122b0565b9150611e30826126c2565b604082019050919050565b6000611e48601d836122b0565b9150611e5382612711565b602082019050919050565b6000611e6b6007836122b0565b9150611e768261273a565b602082019050919050565b6000611e8e6020836122b0565b9150611e9982612763565b602082019050919050565b6000611eb16000836122a5565b9150611ebc8261278c565b600082019050919050565b6000611ed46009836122b0565b9150611edf8261278f565b602082019050919050565b6000611ef76017836122c1565b9150611f02826127b8565b601782019050919050565b6000611f1a6004836122b0565b9150611f25826127e1565b602082019050919050565b6000611f3d6011836122c1565b9150611f488261280a565b601182019050919050565b6000611f60602f836122b0565b9150611f6b82612833565b604082019050919050565b611f7f81612455565b82525050565b6000611f9082611ea4565b9150819050919050565b6000611fa582611eea565b9150611fb18285611cac565b9150611fbc82611f30565b9150611fc88284611cac565b91508190509392505050565b6000602082019050611fe96000830184611c46565b92915050565b600060a0820190506120046000830188611c46565b6120116020830187611c46565b61201e6040830186611f76565b61202b6060830185611f76565b6120386080830184611f76565b9695505050505050565b60006020820190506120576000830184611c55565b92915050565b60006020820190506120726000830184611c64565b92915050565b600060208201905081810360008301526120928184611c73565b905092915050565b600060208201905081810360008301526120b381611cdd565b9050919050565b600060208201905081810360008301526120d381611d00565b9050919050565b600060208201905081810360008301526120f381611d23565b9050919050565b6000602082019050818103600083015261211381611d46565b9050919050565b6000602082019050818103600083015261213381611d69565b9050919050565b6000602082019050818103600083015261215381611d8c565b9050919050565b6000602082019050818103600083015261217381611daf565b9050919050565b6000602082019050818103600083015261219381611dd2565b9050919050565b600060208201905081810360008301526121b381611df5565b9050919050565b600060208201905081810360008301526121d381611e18565b9050919050565b600060208201905081810360008301526121f381611e3b565b9050919050565b6000602082019050818103600083015261221381611e5e565b9050919050565b6000602082019050818103600083015261223381611e81565b9050919050565b6000602082019050818103600083015261225381611ec7565b9050919050565b6000602082019050818103600083015261227381611f0d565b9050919050565b6000602082019050818103600083015261229381611f53565b9050919050565b600081519050919050565b600081905092915050565b600082825260208201905092915050565b600081905092915050565b60006122d782612455565b91506122e283612455565b9250827fffffffffffffffffffffffffffffffffffffffffffffffffffffffffffffffff03821115612317576123166124bc565b5b828201905092915050565b600061232d82612455565b915061233883612455565b925082612348576123476124eb565b5b828204905092915050565b600061235e82612455565b915061236983612455565b9250817fffffffffffffffffffffffffffffffffffffffffffffffffffffffffffffffff04831182151516156123a2576123a16124bc565b5b828202905092915050565b60006123b882612455565b91506123c383612455565b9250828210156123d6576123d56124bc565b5b828203905092915050565b60006123ec82612435565b9050919050565b60008115159050919050565b6000819050919050565b60007fffffffff0000000000000000000000000000000000000000000000000000000082169050919050565b600073ffffffffffffffffffffffffffffffffffffffff82169050919050565b6000819050919050565b60005b8381101561247d578082015181840152602081019050612462565b8381111561248c576000848401525b50505050565b600061249d82612455565b915060008214156124b1576124b06124bc565b5b600182039050919050565b7f4e487b7100000000000000000000000000000000000000000000000000000000600052601160045260246000fd5b7f4e487b7100000000000000000000000000000000000000000000000000000000600052601260045260246000fd5b6000601f19601f8301169050919050565b7f537472696e67733a20686578206c656e67746820696e73756666696369656e74600082015250565b7f21666f722d73616c650000000000000000000000000000000000000000000000600082015250565b7f216f776e73656c6c657200000000000000000000000000000000000000000000600082015250565b7f4f776e61626c653a206e6577206f776e657220697320746865207a65726f206160008201527f6464726573730000000000000000000000000000000000000000000000000000602082015250565b7f2162616c616e6365000000000000000000000000000000000000000000000000600082015250565b7f2166656500000000000000000000000000000000000000000000000000000000600082015250565b7f21736f6c64000000000000000000000000000000000000000000000000000000600082015250565b7f2165786973747300000000000000000000000000000000000000000000000000600082015250565b7f21746f74616c5072696365000000000000000000000000000000000000000000600082015250565b7f416464726573733a20756e61626c6520746f2073656e642076616c75652c207260008201527f6563697069656e74206d61792068617665207265766572746564000000000000602082015250565b7f416464726573733a20696e73756666696369656e742062616c616e6365000000600082015250565b7f2173656c6c657200000000000000000000000000000000000000000000000000600082015250565b7f4f776e61626c653a2063616c6c6572206973206e6f7420746865206f776e6572600082015250565b50565b7f77697468647261776e0000000000000000000000000000000000000000000000600082015250565b7f416363657373436f6e74726f6c3a206163636f756e7420000000000000000000600082015250565b7f21616c6c00000000000000000000000000000000000000000000000000000000600082015250565b7f206973206d697373696e6720726f6c6520000000000000000000000000000000600082015250565b7f416363657373436f6e74726f6c3a2063616e206f6e6c792072656e6f756e636560008201527f20726f6c657320666f722073656c660000000000000000000000000000000000602082015250565b61288b816123e1565b811461289657600080fd5b50565b6128a2816123ff565b81146128ad57600080fd5b50565b6128b981612409565b81146128c457600080fd5b50565b6128d081612455565b81146128db57600080fd5b5056fea2646970667358221220e1ce2c0cb06c35292bee642fbabebff5f408da54d12d7595457df1b669b0f42664736f6c63430008040033",
  "immutableReferences": {},
  "source": "// SPDX-License-Identifier: MIT\r\npragma solidity ^0.8.4;\r\n\r\nimport \"@openzeppelin/contracts/utils/math/SafeMath.sol\";\r\nimport \"@openzeppelin/contracts/access/AccessControl.sol\";\r\nimport \"@openzeppelin/contracts/utils/Address.sol\";\r\nimport \"@openzeppelin/contracts/access/Ownable.sol\";\r\n\r\ncontract Escrow is Ownable, AccessControl {\r\n    using SafeMath for uint256;\r\n    using Address for address payable;\r\n\r\n    bytes32 public constant SYSTEM_AGENT = keccak256(\"SYSTEM_AGENT\");\r\n    bytes32 public constant SYSTEM_BUYER = keccak256(\"SYSTEM_BUYER\");\r\n    bytes32 public constant SYSTEM_SELLER = keccak256(\"SYSTEM_SELLER\");\r\n\r\n    enum EscrowStatus {FOR_SALE, SOLD, WITHDRAWN}\r\n    EscrowItem[] public escrows;\r\n    mapping(uint256 => bool) public contains;\r\n\r\n    struct EscrowItem {\r\n        address buyer;\r\n        address seller;\r\n        uint256 percent;\r\n        uint256 totalPrice;\r\n        uint256 status;\r\n    }\r\n\r\n    modifier onlySeller() {\r\n        //checking Role == SELLER\r\n        require(hasRole(SYSTEM_SELLER, _msgSender()), \"!seller\");\r\n        _;\r\n    }\r\n\r\n    function initNewEscrowItem(\r\n        address _seller,\r\n        uint256 _totalPrice,\r\n        uint256 _percent\r\n    ) external onlyOwner {\r\n        require(_percent < 100, \"!all\");\r\n\r\n        EscrowItem memory newItem =\r\n            EscrowItem({\r\n                buyer: address(0),\r\n                seller: _seller,\r\n                percent: _percent,\r\n                totalPrice: _totalPrice,\r\n                status: uint256(EscrowStatus.FOR_SALE)\r\n            });\r\n\r\n        _setupRole(SYSTEM_SELLER, _seller);\r\n\r\n        escrows.push(newItem);\r\n        contains[escrows.length - 1] = true;\r\n    }\r\n\r\n    function buyItem(uint256 _itemId) external payable {\r\n        require(contains[_itemId], \"!exists\");\r\n        EscrowItem storage item = escrows[_itemId];\r\n\r\n        require(item.status == uint256(EscrowStatus.FOR_SALE), \"!for-sale\");\r\n\r\n        //buyer must send the exact price defined by the seller\r\n        require(msg.value == item.totalPrice, \"!totalPrice\");\r\n        item.buyer = _msgSender();\r\n        item.status = uint256(EscrowStatus.SOLD);\r\n\r\n        //refund extra payment\r\n        if (msg.value > item.totalPrice) {\r\n            uint256 diff = msg.value.sub(item.totalPrice);\r\n            payable(item.buyer).sendValue(diff);\r\n        }\r\n    }\r\n\r\n    function withdraw(uint256 _itemId) external onlySeller {\r\n        require(contains[_itemId], \"!exists\");\r\n        EscrowItem storage item = escrows[_itemId];\r\n\r\n        require(item.seller == _msgSender(), \"!ownseller\");\r\n        require(item.status != uint256(EscrowStatus.FOR_SALE), \"!sold\");\r\n        require(item.status != uint256(EscrowStatus.WITHDRAWN), \"withdrawn\");\r\n\r\n        uint256 totalDeposit = address(this).balance;\r\n        require(totalDeposit > 0, \"!balance\");\r\n\r\n        uint256 agentFee = item.totalPrice.mul(item.percent).div(100);\r\n        require(agentFee > 0, \"!fee\");\r\n\r\n        item.status = uint256(EscrowStatus.WITHDRAWN);\r\n        //subtract the agent's fee, and send the rest to the seller\r\n        uint256 amount = item.totalPrice.sub(agentFee);\r\n        require(amount > 0, \"!fee\");\r\n        \r\n        payable(item.seller).sendValue(amount);\r\n    }\r\n}\r\n",
  "sourcePath": "C:/Users/Administrator/Desktop/SCDP/escrow/contracts/Escrow.sol",
  "compiler": {
    "name": "solc",
    "version": "0.8.4+commit.c7e474f2.Emscripten.clang"
  },
  "schemaVersion": "3.4.1",
  "updatedAt": "2021-06-09T15:36:58.559Z",
  "networkType": "ethereum",
  "devdoc": {
    "kind": "dev",
    "methods": {
      "getRoleAdmin(bytes32)": {
        "details": "Returns the admin role that controls `role`. See {grantRole} and {revokeRole}. To change a role's admin, use {_setRoleAdmin}."
      },
      "grantRole(bytes32,address)": {
        "details": "Grants `role` to `account`. If `account` had not been already granted `role`, emits a {RoleGranted} event. Requirements: - the caller must have ``role``'s admin role."
      },
      "hasRole(bytes32,address)": {
        "details": "Returns `true` if `account` has been granted `role`."
      },
      "owner()": {
        "details": "Returns the address of the current owner."
      },
      "renounceOwnership()": {
        "details": "Leaves the contract without owner. It will not be possible to call `onlyOwner` functions anymore. Can only be called by the current owner. NOTE: Renouncing ownership will leave the contract without an owner, thereby removing any functionality that is only available to the owner."
      },
      "renounceRole(bytes32,address)": {
        "details": "Revokes `role` from the calling account. Roles are often managed via {grantRole} and {revokeRole}: this function's purpose is to provide a mechanism for accounts to lose their privileges if they are compromised (such as when a trusted device is misplaced). If the calling account had been granted `role`, emits a {RoleRevoked} event. Requirements: - the caller must be `account`."
      },
      "revokeRole(bytes32,address)": {
        "details": "Revokes `role` from `account`. If `account` had been granted `role`, emits a {RoleRevoked} event. Requirements: - the caller must have ``role``'s admin role."
      },
      "supportsInterface(bytes4)": {
        "details": "See {IERC165-supportsInterface}."
      },
      "transferOwnership(address)": {
        "details": "Transfers ownership of the contract to a new account (`newOwner`). Can only be called by the current owner."
      }
    },
    "version": 1
  },
  "userdoc": {
    "kind": "user",
    "methods": {},
    "version": 1
  }
}