{
  "contractName": "Escrow",
  "abi": [
    {
      "anonymous": false,
      "inputs": [
        {
          "indexed": true,
          "internalType": "address",
          "name": "previousOwner",
          "type": "address"
        },
        {
          "indexed": true,
          "internalType": "address",
          "name": "newOwner",
          "type": "address"
        }
      ],
      "name": "OwnershipTransferred",
      "type": "event"
    },
    {
      "anonymous": false,
      "inputs": [
        {
          "indexed": true,
          "internalType": "bytes32",
          "name": "role",
          "type": "bytes32"
        },
        {
          "indexed": true,
          "internalType": "bytes32",
          "name": "previousAdminRole",
          "type": "bytes32"
        },
        {
          "indexed": true,
          "internalType": "bytes32",
          "name": "newAdminRole",
          "type": "bytes32"
        }
      ],
      "name": "RoleAdminChanged",
      "type": "event"
    },
    {
      "anonymous": false,
      "inputs": [
        {
          "indexed": true,
          "internalType": "bytes32",
          "name": "role",
          "type": "bytes32"
        },
        {
          "indexed": true,
          "internalType": "address",
          "name": "account",
          "type": "address"
        },
        {
          "indexed": true,
          "internalType": "address",
          "name": "sender",
          "type": "address"
        }
      ],
      "name": "RoleGranted",
      "type": "event"
    },
    {
      "anonymous": false,
      "inputs": [
        {
          "indexed": true,
          "internalType": "bytes32",
          "name": "role",
          "type": "bytes32"
        },
        {
          "indexed": true,
          "internalType": "address",
          "name": "account",
          "type": "address"
        },
        {
          "indexed": true,
          "internalType": "address",
          "name": "sender",
          "type": "address"
        }
      ],
      "name": "RoleRevoked",
      "type": "event"
    },
    {
      "inputs": [],
      "name": "DEFAULT_ADMIN_ROLE",
      "outputs": [
        {
          "internalType": "bytes32",
          "name": "",
          "type": "bytes32"
        }
      ],
      "stateMutability": "view",
      "type": "function",
      "constant": true
    },
    {
      "inputs": [],
      "name": "SYSTEM_AGENT",
      "outputs": [
        {
          "internalType": "bytes32",
          "name": "",
          "type": "bytes32"
        }
      ],
      "stateMutability": "view",
      "type": "function",
      "constant": true
    },
    {
      "inputs": [],
      "name": "SYSTEM_BUYER",
      "outputs": [
        {
          "internalType": "bytes32",
          "name": "",
          "type": "bytes32"
        }
      ],
      "stateMutability": "view",
      "type": "function",
      "constant": true
    },
    {
      "inputs": [],
      "name": "SYSTEM_SELLER",
      "outputs": [
        {
          "internalType": "bytes32",
          "name": "",
          "type": "bytes32"
        }
      ],
      "stateMutability": "view",
      "type": "function",
      "constant": true
    },
    {
      "inputs": [
        {
          "internalType": "uint256",
          "name": "",
          "type": "uint256"
        }
      ],
      "name": "contains",
      "outputs": [
        {
          "internalType": "bool",
          "name": "",
          "type": "bool"
        }
      ],
      "stateMutability": "view",
      "type": "function",
      "constant": true
    },
    {
      "inputs": [
        {
          "internalType": "uint256",
          "name": "",
          "type": "uint256"
        }
      ],
      "name": "escrows",
      "outputs": [
        {
          "internalType": "address",
          "name": "buyer",
          "type": "address"
        },
        {
          "internalType": "address",
          "name": "seller",
          "type": "address"
        },
        {
          "internalType": "uint256",
          "name": "percent",
          "type": "uint256"
        },
        {
          "internalType": "uint256",
          "name": "totalPrice",
          "type": "uint256"
        },
        {
          "internalType": "uint256",
          "name": "status",
          "type": "uint256"
        }
      ],
      "stateMutability": "view",
      "type": "function",
      "constant": true
    },
    {
      "inputs": [
        {
          "internalType": "bytes32",
          "name": "role",
          "type": "bytes32"
        }
      ],
      "name": "getRoleAdmin",
      "outputs": [
        {
          "internalType": "bytes32",
          "name": "",
          "type": "bytes32"
        }
      ],
      "stateMutability": "view",
      "type": "function",
      "constant": true
    },
    {
      "inputs": [
        {
          "internalType": "bytes32",
          "name": "role",
          "type": "bytes32"
        },
        {
          "internalType": "address",
          "name": "account",
          "type": "address"
        }
      ],
      "name": "grantRole",
      "outputs": [],
      "stateMutability": "nonpayable",
      "type": "function"
    },
    {
      "inputs": [
        {
          "internalType": "bytes32",
          "name": "role",
          "type": "bytes32"
        },
        {
          "internalType": "address",
          "name": "account",
          "type": "address"
        }
      ],
      "name": "hasRole",
      "outputs": [
        {
          "internalType": "bool",
          "name": "",
          "type": "bool"
        }
      ],
      "stateMutability": "view",
      "type": "function",
      "constant": true
    },
    {
      "inputs": [],
      "name": "owner",
      "outputs": [
        {
          "internalType": "address",
          "name": "",
          "type": "address"
        }
      ],
      "stateMutability": "view",
      "type": "function",
      "constant": true
    },
    {
      "inputs": [],
      "name": "renounceOwnership",
      "outputs": [],
      "stateMutability": "nonpayable",
      "type": "function"
    },
    {
      "inputs": [
        {
          "internalType": "bytes32",
          "name": "role",
          "type": "bytes32"
        },
        {
          "internalType": "address",
          "name": "account",
          "type": "address"
        }
      ],
      "name": "renounceRole",
      "outputs": [],
      "stateMutability": "nonpayable",
      "type": "function"
    },
    {
      "inputs": [
        {
          "internalType": "bytes32",
          "name": "role",
          "type": "bytes32"
        },
        {
          "internalType": "address",
          "name": "account",
          "type": "address"
        }
      ],
      "name": "revokeRole",
      "outputs": [],
      "stateMutability": "nonpayable",
      "type": "function"
    },
    {
      "inputs": [
        {
          "internalType": "bytes4",
          "name": "interfaceId",
          "type": "bytes4"
        }
      ],
      "name": "supportsInterface",
      "outputs": [
        {
          "internalType": "bool",
          "name": "",
          "type": "bool"
        }
      ],
      "stateMutability": "view",
      "type": "function",
      "constant": true
    },
    {
      "inputs": [
        {
          "internalType": "address",
          "name": "newOwner",
          "type": "address"
        }
      ],
      "name": "transferOwnership",
      "outputs": [],
      "stateMutability": "nonpayable",
      "type": "function"
    },
    {
      "inputs": [
        {
          "internalType": "address",
          "name": "_seller",
          "type": "address"
        },
        {
          "internalType": "uint256",
          "name": "_totalPrice",
          "type": "uint256"
        },
        {
          "internalType": "uint256",
          "name": "_percent",
          "type": "uint256"
        }
      ],
      "name": "initNewEscrowItem",
      "outputs": [],
      "stateMutability": "nonpayable",
      "type": "function"
    },
    {
      "inputs": [
        {
          "internalType": "uint256",
          "name": "_itemId",
          "type": "uint256"
        }
      ],
      "name": "buyItem",
      "outputs": [],
      "stateMutability": "payable",
      "type": "function",
      "payable": true
    },
    {
      "inputs": [
        {
          "internalType": "uint256",
          "name": "_itemId",
          "type": "uint256"
        }
      ],
      "name": "withdraw",
      "outputs": [],
      "stateMutability": "nonpayable",
      "type": "function"
    },
    {
      "inputs": [],
      "name": "totalEscrows",
      "outputs": [
        {
          "internalType": "uint256",
          "name": "count",
          "type": "uint256"
        }
      ],
      "stateMutability": "view",
      "type": "function",
      "constant": true
    }
  ],
  "bytecode": "0x608060405234801561001057600080fd5b5060006100216100c460201b60201c565b9050806000806101000a81548173ffffffffffffffffffffffffffffffffffffffff021916908373ffffffffffffffffffffffffffffffffffffffff1602179055508073ffffffffffffffffffffffffffffffffffffffff16600073ffffffffffffffffffffffffffffffffffffffff167f8be0079c531659141344cd1fd0a4f28419497f9722a3daafe3b4186f6b6457e060405160405180910390a3506100cc565b600033905090565b612972806100db6000396000f3fe6080604052600436106101145760003560e01c806363ee7c8d116100a0578063aeb7950d11610064578063aeb7950d146103a5578063c34052e0146103ce578063d547741f1461040b578063e7fb74c714610434578063f2fde38b1461045057610114565b806363ee7c8d146102d0578063715018a6146102fb5780638da5cb5b1461031257806391d148541461033d578063a217fddf1461037a57610114565b80632f2ff15d116100e75780632f2ff15d146101fd57806336568abe1461022657806336acc9d71461024f57806359aa866a1461027a57806362ec16fe146102a557610114565b8063012f52ee1461011957806301ffc9a71461015a578063248a9ca3146101975780632e1a7d4d146101d4575b600080fd5b34801561012557600080fd5b50610140600480360381019061013b9190611c60565b610479565b604051610151959493929190612032565b60405180910390f35b34801561016657600080fd5b50610181600480360381019061017c9190611c37565b6104ff565b60405161018e9190612085565b60405180910390f35b3480156101a357600080fd5b506101be60048036038101906101b99190611bd2565b610579565b6040516101cb91906120a0565b60405180910390f35b3480156101e057600080fd5b506101fb60048036038101906101f69190611c60565b610599565b005b34801561020957600080fd5b50610224600480360381019061021f9190611bfb565b6109fd565b005b34801561023257600080fd5b5061024d60048036038101906102489190611bfb565b610a26565b005b34801561025b57600080fd5b50610264610aa9565b60405161027191906120a0565b60405180910390f35b34801561028657600080fd5b5061028f610acd565b60405161029c91906120a0565b60405180910390f35b3480156102b157600080fd5b506102ba610af1565b6040516102c791906120a0565b60405180910390f35b3480156102dc57600080fd5b506102e5610b15565b6040516102f291906122dd565b60405180910390f35b34801561030757600080fd5b50610310610b22565b005b34801561031e57600080fd5b50610327610c5c565b6040516103349190612017565b60405180910390f35b34801561034957600080fd5b50610364600480360381019061035f9190611bfb565b610c85565b6040516103719190612085565b60405180910390f35b34801561038657600080fd5b5061038f610cf0565b60405161039c91906120a0565b60405180910390f35b3480156103b157600080fd5b506103cc60048036038101906103c79190611b83565b610cf7565b005b3480156103da57600080fd5b506103f560048036038101906103f09190611c60565b610f8e565b6040516104029190612085565b60405180910390f35b34801561041757600080fd5b50610432600480360381019061042d9190611bfb565b610fae565b005b61044e60048036038101906104499190611c60565b610fd7565b005b34801561045c57600080fd5b5061047760048036038101906104729190611b5a565b61124e565b005b6002818154811061048957600080fd5b90600052602060002090600502016000915090508060000160009054906101000a900473ffffffffffffffffffffffffffffffffffffffff16908060010160009054906101000a900473ffffffffffffffffffffffffffffffffffffffff16908060020154908060030154908060040154905085565b60007f7965db0b000000000000000000000000000000000000000000000000000000007bffffffffffffffffffffffffffffffffffffffffffffffffffffffff1916827bffffffffffffffffffffffffffffffffffffffffffffffffffffffff191614806105725750610571826113f7565b5b9050919050565b600060016000838152602001908152602001600020600101549050919050565b6105ca7f31a0814d66f4dee9c8949a2c780e07508f08615f200ebf6524799b95ffbe15126105c5611461565b610c85565b610609576040517f08c379a00000000000000000000000000000000000000000000000000000000081526004016106009061223d565b60405180910390fd5b6003600082815260200190815260200160002060009054906101000a900460ff16610669576040517f08c379a0000000000000000000000000000000000000000000000000000000008152600401610660906121bd565b60405180910390fd5b6000600282815481106106a5577f4e487b7100000000000000000000000000000000000000000000000000000000600052603260045260246000fd5b906000526020600020906005020190506106bd611461565b73ffffffffffffffffffffffffffffffffffffffff168160010160009054906101000a900473ffffffffffffffffffffffffffffffffffffffff1673ffffffffffffffffffffffffffffffffffffffff161461074e576040517f08c379a00000000000000000000000000000000000000000000000000000000081526004016107459061211d565b60405180910390fd5b60006002811115610788577f4e487b7100000000000000000000000000000000000000000000000000000000600052602160045260246000fd5b816004015414156107ce576040517f08c379a00000000000000000000000000000000000000000000000000000000081526004016107c59061219d565b60405180910390fd5b600280811115610807577f4e487b7100000000000000000000000000000000000000000000000000000000600052602160045260246000fd5b8160040154141561084d576040517f08c379a00000000000000000000000000000000000000000000000000000000081526004016108449061227d565b60405180910390fd5b600047905060008111610895576040517f08c379a000000000000000000000000000000000000000000000000000000000815260040161088c9061215d565b60405180910390fd5b60006108c560646108b78560020154866003015461146990919063ffffffff16565b61147f90919063ffffffff16565b90506000811161090a576040517f08c379a00000000000000000000000000000000000000000000000000000000081526004016109019061217d565b60405180910390fd5b600280811115610943577f4e487b7100000000000000000000000000000000000000000000000000000000600052602160045260246000fd5b8360040181905550600061096482856003015461149590919063ffffffff16565b9050600081116109a9576040517f08c379a00000000000000000000000000000000000000000000000000000000081526004016109a09061217d565b60405180910390fd5b6109f6818560010160009054906101000a900473ffffffffffffffffffffffffffffffffffffffff1673ffffffffffffffffffffffffffffffffffffffff166114ab90919063ffffffff16565b5050505050565b610a0682610579565b610a1781610a12611461565b61159f565b610a21838361163c565b505050565b610a2e611461565b73ffffffffffffffffffffffffffffffffffffffff168173ffffffffffffffffffffffffffffffffffffffff1614610a9b576040517f08c379a0000000000000000000000000000000000000000000000000000000008152600401610a92906122bd565b60405180910390fd5b610aa5828261171c565b5050565b7fe26612c5510afef89e10b6aff738cfb69bec6429cf8054f395b13070dce3be7681565b7fc959c297475598e40c71b7455404de9d31dd350a92ec7c0dead938a32e50c91681565b7f31a0814d66f4dee9c8949a2c780e07508f08615f200ebf6524799b95ffbe151281565b6000600280549050905090565b610b2a611461565b73ffffffffffffffffffffffffffffffffffffffff16610b48610c5c565b73ffffffffffffffffffffffffffffffffffffffff1614610b9e576040517f08c379a0000000000000000000000000000000000000000000000000000000008152600401610b959061225d565b60405180910390fd5b600073ffffffffffffffffffffffffffffffffffffffff1660008054906101000a900473ffffffffffffffffffffffffffffffffffffffff1673ffffffffffffffffffffffffffffffffffffffff167f8be0079c531659141344cd1fd0a4f28419497f9722a3daafe3b4186f6b6457e060405160405180910390a360008060006101000a81548173ffffffffffffffffffffffffffffffffffffffff021916908373ffffffffffffffffffffffffffffffffffffffff160217905550565b60008060009054906101000a900473ffffffffffffffffffffffffffffffffffffffff16905090565b60006001600084815260200190815260200160002060000160008373ffffffffffffffffffffffffffffffffffffffff1673ffffffffffffffffffffffffffffffffffffffff16815260200190815260200160002060009054906101000a900460ff16905092915050565b6000801b81565b610cff611461565b73ffffffffffffffffffffffffffffffffffffffff16610d1d610c5c565b73ffffffffffffffffffffffffffffffffffffffff1614610d73576040517f08c379a0000000000000000000000000000000000000000000000000000000008152600401610d6a9061225d565b60405180910390fd5b60648110610db6576040517f08c379a0000000000000000000000000000000000000000000000000000000008152600401610dad9061229d565b60405180910390fd5b60006040518060a00160405280600073ffffffffffffffffffffffffffffffffffffffff1681526020018573ffffffffffffffffffffffffffffffffffffffff16815260200183815260200184815260200160006002811115610e42577f4e487b7100000000000000000000000000000000000000000000000000000000600052602160045260246000fd5b8152509050610e717f31a0814d66f4dee9c8949a2c780e07508f08615f200ebf6524799b95ffbe1512856117fe565b600281908060018154018082558091505060019003906000526020600020906005020160009091909190915060008201518160000160006101000a81548173ffffffffffffffffffffffffffffffffffffffff021916908373ffffffffffffffffffffffffffffffffffffffff16021790555060208201518160010160006101000a81548173ffffffffffffffffffffffffffffffffffffffff021916908373ffffffffffffffffffffffffffffffffffffffff16021790555060408201518160020155606082015181600301556080820151816004015550506001600360006001600280549050610f63919061240b565b815260200190815260200160002060006101000a81548160ff02191690831515021790555050505050565b60036020528060005260406000206000915054906101000a900460ff1681565b610fb782610579565b610fc881610fc3611461565b61159f565b610fd2838361171c565b505050565b6003600082815260200190815260200160002060009054906101000a900460ff16611037576040517f08c379a000000000000000000000000000000000000000000000000000000000815260040161102e906121bd565b60405180910390fd5b600060028281548110611073577f4e487b7100000000000000000000000000000000000000000000000000000000600052603260045260246000fd5b90600052602060002090600502019050600060028111156110bd577f4e487b7100000000000000000000000000000000000000000000000000000000600052602160045260246000fd5b816004015414611102576040517f08c379a00000000000000000000000000000000000000000000000000000000081526004016110f9906120fd565b60405180910390fd5b80600301543414611148576040517f08c379a000000000000000000000000000000000000000000000000000000000815260040161113f906121dd565b60405180910390fd5b611150611461565b8160000160006101000a81548173ffffffffffffffffffffffffffffffffffffffff021916908373ffffffffffffffffffffffffffffffffffffffff160217905550600160028111156111cc577f4e487b7100000000000000000000000000000000000000000000000000000000600052602160045260246000fd5b8160040181905550806003015434111561124a5760006111f982600301543461149590919063ffffffff16565b9050611248818360000160009054906101000a900473ffffffffffffffffffffffffffffffffffffffff1673ffffffffffffffffffffffffffffffffffffffff166114ab90919063ffffffff16565b505b5050565b611256611461565b73ffffffffffffffffffffffffffffffffffffffff16611274610c5c565b73ffffffffffffffffffffffffffffffffffffffff16146112ca576040517f08c379a00000000000000000000000000000000000000000000000000000000081526004016112c19061225d565b60405180910390fd5b600073ffffffffffffffffffffffffffffffffffffffff168173ffffffffffffffffffffffffffffffffffffffff16141561133a576040517f08c379a00000000000000000000000000000000000000000000000000000000081526004016113319061213d565b60405180910390fd5b8073ffffffffffffffffffffffffffffffffffffffff1660008054906101000a900473ffffffffffffffffffffffffffffffffffffffff1673ffffffffffffffffffffffffffffffffffffffff167f8be0079c531659141344cd1fd0a4f28419497f9722a3daafe3b4186f6b6457e060405160405180910390a3806000806101000a81548173ffffffffffffffffffffffffffffffffffffffff021916908373ffffffffffffffffffffffffffffffffffffffff16021790555050565b60007f01ffc9a7000000000000000000000000000000000000000000000000000000007bffffffffffffffffffffffffffffffffffffffffffffffffffffffff1916827bffffffffffffffffffffffffffffffffffffffffffffffffffffffff1916149050919050565b600033905090565b6000818361147791906123b1565b905092915050565b6000818361148d9190612380565b905092915050565b600081836114a3919061240b565b905092915050565b804710156114ee576040517f08c379a00000000000000000000000000000000000000000000000000000000081526004016114e59061221d565b60405180910390fd5b60008273ffffffffffffffffffffffffffffffffffffffff168260405161151490611fc8565b60006040518083038185875af1925050503d8060008114611551576040519150601f19603f3d011682016040523d82523d6000602084013e611556565b606091505b505090508061159a576040517f08c379a0000000000000000000000000000000000000000000000000000000008152600401611591906121fd565b60405180910390fd5b505050565b6115a98282610c85565b611638576115ce8173ffffffffffffffffffffffffffffffffffffffff16601461180c565b6115dc8360001c602061180c565b6040516020016115ed929190611fdd565b6040516020818303038152906040526040517f08c379a000000000000000000000000000000000000000000000000000000000815260040161162f91906120bb565b60405180910390fd5b5050565b6116468282610c85565b61171857600180600084815260200190815260200160002060000160008373ffffffffffffffffffffffffffffffffffffffff1673ffffffffffffffffffffffffffffffffffffffff16815260200190815260200160002060006101000a81548160ff0219169083151502179055506116bd611461565b73ffffffffffffffffffffffffffffffffffffffff168173ffffffffffffffffffffffffffffffffffffffff16837f2f8788117e7eff1d82e926ec794901d17c78024a50270940304540a733656f0d60405160405180910390a45b5050565b6117268282610c85565b156117fa5760006001600084815260200190815260200160002060000160008373ffffffffffffffffffffffffffffffffffffffff1673ffffffffffffffffffffffffffffffffffffffff16815260200190815260200160002060006101000a81548160ff02191690831515021790555061179f611461565b73ffffffffffffffffffffffffffffffffffffffff168173ffffffffffffffffffffffffffffffffffffffff16837ff6391f5c32d9c69d2a47ea670b442974b53935d1edc7fd64eb21e047a839171b60405160405180910390a45b5050565b611808828261163c565b5050565b60606000600283600261181f91906123b1565b611829919061232a565b67ffffffffffffffff811115611868577f4e487b7100000000000000000000000000000000000000000000000000000000600052604160045260246000fd5b6040519080825280601f01601f19166020018201604052801561189a5781602001600182028036833780820191505090505b5090507f3000000000000000000000000000000000000000000000000000000000000000816000815181106118f8577f4e487b7100000000000000000000000000000000000000000000000000000000600052603260045260246000fd5b60200101907effffffffffffffffffffffffffffffffffffffffffffffffffffffffffffff1916908160001a9053507f780000000000000000000000000000000000000000000000000000000000000081600181518110611982577f4e487b7100000000000000000000000000000000000000000000000000000000600052603260045260246000fd5b60200101907effffffffffffffffffffffffffffffffffffffffffffffffffffffffffffff1916908160001a905350600060018460026119c291906123b1565b6119cc919061232a565b90505b6001811115611ab8577f3031323334353637383961626364656600000000000000000000000000000000600f861660108110611a34577f4e487b7100000000000000000000000000000000000000000000000000000000600052603260045260246000fd5b1a60f81b828281518110611a71577f4e487b7100000000000000000000000000000000000000000000000000000000600052603260045260246000fd5b60200101907effffffffffffffffffffffffffffffffffffffffffffffffffffffffffffff1916908160001a905350600485901c945080611ab1906124f0565b90506119cf565b5060008414611afc576040517f08c379a0000000000000000000000000000000000000000000000000000000008152600401611af3906120dd565b60405180910390fd5b8091505092915050565b600081359050611b15816128e0565b92915050565b600081359050611b2a816128f7565b92915050565b600081359050611b3f8161290e565b92915050565b600081359050611b5481612925565b92915050565b600060208284031215611b6c57600080fd5b6000611b7a84828501611b06565b91505092915050565b600080600060608486031215611b9857600080fd5b6000611ba686828701611b06565b9350506020611bb786828701611b45565b9250506040611bc886828701611b45565b9150509250925092565b600060208284031215611be457600080fd5b6000611bf284828501611b1b565b91505092915050565b60008060408385031215611c0e57600080fd5b6000611c1c85828601611b1b565b9250506020611c2d85828601611b06565b9150509250929050565b600060208284031215611c4957600080fd5b6000611c5784828501611b30565b91505092915050565b600060208284031215611c7257600080fd5b6000611c8084828501611b45565b91505092915050565b611c928161243f565b82525050565b611ca181612451565b82525050565b611cb08161245d565b82525050565b6000611cc1826122f8565b611ccb818561230e565b9350611cdb8185602086016124bd565b611ce481612578565b840191505092915050565b6000611cfa826122f8565b611d04818561231f565b9350611d148185602086016124bd565b80840191505092915050565b6000611d2d60208361230e565b9150611d3882612589565b602082019050919050565b6000611d5060098361230e565b9150611d5b826125b2565b602082019050919050565b6000611d73600a8361230e565b9150611d7e826125db565b602082019050919050565b6000611d9660268361230e565b9150611da182612604565b604082019050919050565b6000611db960088361230e565b9150611dc482612653565b602082019050919050565b6000611ddc60048361230e565b9150611de78261267c565b602082019050919050565b6000611dff60058361230e565b9150611e0a826126a5565b602082019050919050565b6000611e2260078361230e565b9150611e2d826126ce565b602082019050919050565b6000611e45600b8361230e565b9150611e50826126f7565b602082019050919050565b6000611e68603a8361230e565b9150611e7382612720565b604082019050919050565b6000611e8b601d8361230e565b9150611e968261276f565b602082019050919050565b6000611eae60078361230e565b9150611eb982612798565b602082019050919050565b6000611ed160208361230e565b9150611edc826127c1565b602082019050919050565b6000611ef4600083612303565b9150611eff826127ea565b600082019050919050565b6000611f1760098361230e565b9150611f22826127ed565b602082019050919050565b6000611f3a60178361231f565b9150611f4582612816565b601782019050919050565b6000611f5d60048361230e565b9150611f688261283f565b602082019050919050565b6000611f8060118361231f565b9150611f8b82612868565b601182019050919050565b6000611fa3602f8361230e565b9150611fae82612891565b604082019050919050565b611fc2816124b3565b82525050565b6000611fd382611ee7565b9150819050919050565b6000611fe882611f2d565b9150611ff48285611cef565b9150611fff82611f73565b915061200b8284611cef565b91508190509392505050565b600060208201905061202c6000830184611c89565b92915050565b600060a0820190506120476000830188611c89565b6120546020830187611c89565b6120616040830186611fb9565b61206e6060830185611fb9565b61207b6080830184611fb9565b9695505050505050565b600060208201905061209a6000830184611c98565b92915050565b60006020820190506120b56000830184611ca7565b92915050565b600060208201905081810360008301526120d58184611cb6565b905092915050565b600060208201905081810360008301526120f681611d20565b9050919050565b6000602082019050818103600083015261211681611d43565b9050919050565b6000602082019050818103600083015261213681611d66565b9050919050565b6000602082019050818103600083015261215681611d89565b9050919050565b6000602082019050818103600083015261217681611dac565b9050919050565b6000602082019050818103600083015261219681611dcf565b9050919050565b600060208201905081810360008301526121b681611df2565b9050919050565b600060208201905081810360008301526121d681611e15565b9050919050565b600060208201905081810360008301526121f681611e38565b9050919050565b6000602082019050818103600083015261221681611e5b565b9050919050565b6000602082019050818103600083015261223681611e7e565b9050919050565b6000602082019050818103600083015261225681611ea1565b9050919050565b6000602082019050818103600083015261227681611ec4565b9050919050565b6000602082019050818103600083015261229681611f0a565b9050919050565b600060208201905081810360008301526122b681611f50565b9050919050565b600060208201905081810360008301526122d681611f96565b9050919050565b60006020820190506122f26000830184611fb9565b92915050565b600081519050919050565b600081905092915050565b600082825260208201905092915050565b600081905092915050565b6000612335826124b3565b9150612340836124b3565b9250827fffffffffffffffffffffffffffffffffffffffffffffffffffffffffffffffff038211156123755761237461251a565b5b828201905092915050565b600061238b826124b3565b9150612396836124b3565b9250826123a6576123a5612549565b5b828204905092915050565b60006123bc826124b3565b91506123c7836124b3565b9250817fffffffffffffffffffffffffffffffffffffffffffffffffffffffffffffffff0483118215151615612400576123ff61251a565b5b828202905092915050565b6000612416826124b3565b9150612421836124b3565b9250828210156124345761243361251a565b5b828203905092915050565b600061244a82612493565b9050919050565b60008115159050919050565b6000819050919050565b60007fffffffff0000000000000000000000000000000000000000000000000000000082169050919050565b600073ffffffffffffffffffffffffffffffffffffffff82169050919050565b6000819050919050565b60005b838110156124db5780820151818401526020810190506124c0565b838111156124ea576000848401525b50505050565b60006124fb826124b3565b9150600082141561250f5761250e61251a565b5b600182039050919050565b7f4e487b7100000000000000000000000000000000000000000000000000000000600052601160045260246000fd5b7f4e487b7100000000000000000000000000000000000000000000000000000000600052601260045260246000fd5b6000601f19601f8301169050919050565b7f537472696e67733a20686578206c656e67746820696e73756666696369656e74600082015250565b7f21666f722d73616c650000000000000000000000000000000000000000000000600082015250565b7f216f776e73656c6c657200000000000000000000000000000000000000000000600082015250565b7f4f776e61626c653a206e6577206f776e657220697320746865207a65726f206160008201527f6464726573730000000000000000000000000000000000000000000000000000602082015250565b7f2162616c616e6365000000000000000000000000000000000000000000000000600082015250565b7f2166656500000000000000000000000000000000000000000000000000000000600082015250565b7f21736f6c64000000000000000000000000000000000000000000000000000000600082015250565b7f2165786973747300000000000000000000000000000000000000000000000000600082015250565b7f21746f74616c5072696365000000000000000000000000000000000000000000600082015250565b7f416464726573733a20756e61626c6520746f2073656e642076616c75652c207260008201527f6563697069656e74206d61792068617665207265766572746564000000000000602082015250565b7f416464726573733a20696e73756666696369656e742062616c616e6365000000600082015250565b7f2173656c6c657200000000000000000000000000000000000000000000000000600082015250565b7f4f776e61626c653a2063616c6c6572206973206e6f7420746865206f776e6572600082015250565b50565b7f77697468647261776e0000000000000000000000000000000000000000000000600082015250565b7f416363657373436f6e74726f6c3a206163636f756e7420000000000000000000600082015250565b7f21616c6c00000000000000000000000000000000000000000000000000000000600082015250565b7f206973206d697373696e6720726f6c6520000000000000000000000000000000600082015250565b7f416363657373436f6e74726f6c3a2063616e206f6e6c792072656e6f756e636560008201527f20726f6c657320666f722073656c660000000000000000000000000000000000602082015250565b6128e98161243f565b81146128f457600080fd5b50565b6129008161245d565b811461290b57600080fd5b50565b61291781612467565b811461292257600080fd5b50565b61292e816124b3565b811461293957600080fd5b5056fea2646970667358221220a4b7de324bea47f678c8a641ca427be6e511c2e53dedc0aae857bf29af4f257764736f6c63430008040033",
  "immutableReferences": {},
  "source": "// SPDX-License-Identifier: MIT\r\npragma solidity ^0.8.4;\r\n\r\nimport \"@openzeppelin/contracts/utils/math/SafeMath.sol\";\r\nimport \"@openzeppelin/contracts/access/AccessControl.sol\";\r\nimport \"@openzeppelin/contracts/utils/Address.sol\";\r\nimport \"@openzeppelin/contracts/access/Ownable.sol\";\r\n\r\ncontract Escrow is Ownable, AccessControl {\r\n    using SafeMath for uint256;\r\n    using Address for address payable;\r\n\r\n    bytes32 public constant SYSTEM_AGENT = keccak256(\"SYSTEM_AGENT\");\r\n    bytes32 public constant SYSTEM_BUYER = keccak256(\"SYSTEM_BUYER\");\r\n    bytes32 public constant SYSTEM_SELLER = keccak256(\"SYSTEM_SELLER\");\r\n\r\n    enum EscrowStatus {FOR_SALE, SOLD, WITHDRAWN}\r\n    EscrowItem[] public escrows;\r\n    mapping(uint256 => bool) public contains;\r\n\r\n    struct EscrowItem {\r\n        address buyer;\r\n        address seller;\r\n        uint256 percent;\r\n        uint256 totalPrice;\r\n        uint256 status;\r\n    }\r\n\r\n    modifier onlySeller() {\r\n        //checking Role == SELLER\r\n        require(hasRole(SYSTEM_SELLER, _msgSender()), \"!seller\");\r\n        _;\r\n    }\r\n\r\n    function initNewEscrowItem(\r\n        address _seller,\r\n        uint256 _totalPrice,\r\n        uint256 _percent\r\n    ) external onlyOwner {\r\n        require(_percent < 100, \"!all\");\r\n\r\n        EscrowItem memory newItem =\r\n            EscrowItem({\r\n                buyer: address(0),\r\n                seller: _seller,\r\n                percent: _percent,\r\n                totalPrice: _totalPrice,\r\n                status: uint256(EscrowStatus.FOR_SALE)\r\n            });\r\n\r\n        _setupRole(SYSTEM_SELLER, _seller);\r\n\r\n        escrows.push(newItem);\r\n        contains[escrows.length - 1] = true;\r\n    }\r\n\r\n    function buyItem(uint256 _itemId) external payable {\r\n        require(contains[_itemId], \"!exists\");\r\n        EscrowItem storage item = escrows[_itemId];\r\n\r\n        require(item.status == uint256(EscrowStatus.FOR_SALE), \"!for-sale\");\r\n\r\n        //buyer must send the exact price defined by the seller\r\n        require(msg.value == item.totalPrice, \"!totalPrice\");\r\n        item.buyer = _msgSender();\r\n        item.status = uint256(EscrowStatus.SOLD);\r\n\r\n        //refund extra payment\r\n        if (msg.value > item.totalPrice) {\r\n            uint256 diff = msg.value.sub(item.totalPrice);\r\n            payable(item.buyer).sendValue(diff);\r\n        }\r\n    }\r\n\r\n    function withdraw(uint256 _itemId) external onlySeller {\r\n        require(contains[_itemId], \"!exists\");\r\n        EscrowItem storage item = escrows[_itemId];\r\n\r\n        require(item.seller == _msgSender(), \"!ownseller\");\r\n        require(item.status != uint256(EscrowStatus.FOR_SALE), \"!sold\");\r\n        require(item.status != uint256(EscrowStatus.WITHDRAWN), \"withdrawn\");\r\n\r\n        uint256 totalDeposit = address(this).balance;\r\n        require(totalDeposit > 0, \"!balance\");\r\n\r\n        uint256 agentFee = item.totalPrice.mul(item.percent).div(100);\r\n        require(agentFee > 0, \"!fee\");\r\n\r\n        item.status = uint256(EscrowStatus.WITHDRAWN);\r\n        //subtract the agent's fee, and send the rest to the seller\r\n        uint256 amount = item.totalPrice.sub(agentFee);\r\n        require(amount > 0, \"!fee\");\r\n\r\n        payable(item.seller).sendValue(amount);\r\n    }\r\n\r\n    function totalEscrows() external view returns (uint256 count) {\r\n        count = escrows.length;\r\n    }\r\n}\r\n",
  "sourcePath": "C:/Users/Administrator/Desktop/Design Patterns/escrow/Blockchain/contracts/Escrow.sol",
  "compiler": {
    "name": "solc",
    "version": "0.8.4+commit.c7e474f2.Emscripten.clang"
  },
  "schemaVersion": "3.4.1",
  "updatedAt": "2021-06-10T15:31:46.241Z",
  "networkType": "ethereum",
  "devdoc": {
    "kind": "dev",
    "methods": {
      "getRoleAdmin(bytes32)": {
        "details": "Returns the admin role that controls `role`. See {grantRole} and {revokeRole}. To change a role's admin, use {_setRoleAdmin}."
      },
      "grantRole(bytes32,address)": {
        "details": "Grants `role` to `account`. If `account` had not been already granted `role`, emits a {RoleGranted} event. Requirements: - the caller must have ``role``'s admin role."
      },
      "hasRole(bytes32,address)": {
        "details": "Returns `true` if `account` has been granted `role`."
      },
      "owner()": {
        "details": "Returns the address of the current owner."
      },
      "renounceOwnership()": {
        "details": "Leaves the contract without owner. It will not be possible to call `onlyOwner` functions anymore. Can only be called by the current owner. NOTE: Renouncing ownership will leave the contract without an owner, thereby removing any functionality that is only available to the owner."
      },
      "renounceRole(bytes32,address)": {
        "details": "Revokes `role` from the calling account. Roles are often managed via {grantRole} and {revokeRole}: this function's purpose is to provide a mechanism for accounts to lose their privileges if they are compromised (such as when a trusted device is misplaced). If the calling account had been granted `role`, emits a {RoleRevoked} event. Requirements: - the caller must be `account`."
      },
      "revokeRole(bytes32,address)": {
        "details": "Revokes `role` from `account`. If `account` had been granted `role`, emits a {RoleRevoked} event. Requirements: - the caller must have ``role``'s admin role."
      },
      "supportsInterface(bytes4)": {
        "details": "See {IERC165-supportsInterface}."
      },
      "transferOwnership(address)": {
        "details": "Transfers ownership of the contract to a new account (`newOwner`). Can only be called by the current owner."
      }
    },
    "version": 1
  },
  "userdoc": {
    "kind": "user",
    "methods": {},
    "version": 1
  }
}