{
  "contractName": "EscrowGate",
  "abi": [
    {
      "inputs": [],
      "stateMutability": "nonpayable",
      "type": "constructor"
    },
    {
      "anonymous": false,
      "inputs": [
        {
          "indexed": true,
          "internalType": "bytes32",
          "name": "role",
          "type": "bytes32"
        },
        {
          "indexed": true,
          "internalType": "bytes32",
          "name": "previousAdminRole",
          "type": "bytes32"
        },
        {
          "indexed": true,
          "internalType": "bytes32",
          "name": "newAdminRole",
          "type": "bytes32"
        }
      ],
      "name": "RoleAdminChanged",
      "type": "event"
    },
    {
      "anonymous": false,
      "inputs": [
        {
          "indexed": true,
          "internalType": "bytes32",
          "name": "role",
          "type": "bytes32"
        },
        {
          "indexed": true,
          "internalType": "address",
          "name": "account",
          "type": "address"
        },
        {
          "indexed": true,
          "internalType": "address",
          "name": "sender",
          "type": "address"
        }
      ],
      "name": "RoleGranted",
      "type": "event"
    },
    {
      "anonymous": false,
      "inputs": [
        {
          "indexed": true,
          "internalType": "bytes32",
          "name": "role",
          "type": "bytes32"
        },
        {
          "indexed": true,
          "internalType": "address",
          "name": "account",
          "type": "address"
        },
        {
          "indexed": true,
          "internalType": "address",
          "name": "sender",
          "type": "address"
        }
      ],
      "name": "RoleRevoked",
      "type": "event"
    },
    {
      "inputs": [],
      "name": "DEFAULT_ADMIN_ROLE",
      "outputs": [
        {
          "internalType": "bytes32",
          "name": "",
          "type": "bytes32"
        }
      ],
      "stateMutability": "view",
      "type": "function",
      "constant": true
    },
    {
      "inputs": [],
      "name": "SYSTEM_AGENT",
      "outputs": [
        {
          "internalType": "bytes32",
          "name": "",
          "type": "bytes32"
        }
      ],
      "stateMutability": "view",
      "type": "function",
      "constant": true
    },
    {
      "inputs": [],
      "name": "SYSTEM_BUYER",
      "outputs": [
        {
          "internalType": "bytes32",
          "name": "",
          "type": "bytes32"
        }
      ],
      "stateMutability": "view",
      "type": "function",
      "constant": true
    },
    {
      "inputs": [],
      "name": "SYSTEM_SELLER",
      "outputs": [
        {
          "internalType": "bytes32",
          "name": "",
          "type": "bytes32"
        }
      ],
      "stateMutability": "view",
      "type": "function",
      "constant": true
    },
    {
      "inputs": [],
      "name": "agent",
      "outputs": [
        {
          "internalType": "address",
          "name": "",
          "type": "address"
        }
      ],
      "stateMutability": "view",
      "type": "function",
      "constant": true
    },
    {
      "inputs": [
        {
          "internalType": "bytes32",
          "name": "role",
          "type": "bytes32"
        }
      ],
      "name": "getRoleAdmin",
      "outputs": [
        {
          "internalType": "bytes32",
          "name": "",
          "type": "bytes32"
        }
      ],
      "stateMutability": "view",
      "type": "function",
      "constant": true
    },
    {
      "inputs": [
        {
          "internalType": "bytes32",
          "name": "role",
          "type": "bytes32"
        },
        {
          "internalType": "address",
          "name": "account",
          "type": "address"
        }
      ],
      "name": "grantRole",
      "outputs": [],
      "stateMutability": "nonpayable",
      "type": "function"
    },
    {
      "inputs": [
        {
          "internalType": "bytes32",
          "name": "role",
          "type": "bytes32"
        },
        {
          "internalType": "address",
          "name": "account",
          "type": "address"
        }
      ],
      "name": "hasRole",
      "outputs": [
        {
          "internalType": "bool",
          "name": "",
          "type": "bool"
        }
      ],
      "stateMutability": "view",
      "type": "function",
      "constant": true
    },
    {
      "inputs": [
        {
          "internalType": "bytes32",
          "name": "role",
          "type": "bytes32"
        },
        {
          "internalType": "address",
          "name": "account",
          "type": "address"
        }
      ],
      "name": "renounceRole",
      "outputs": [],
      "stateMutability": "nonpayable",
      "type": "function"
    },
    {
      "inputs": [
        {
          "internalType": "bytes32",
          "name": "role",
          "type": "bytes32"
        },
        {
          "internalType": "address",
          "name": "account",
          "type": "address"
        }
      ],
      "name": "revokeRole",
      "outputs": [],
      "stateMutability": "nonpayable",
      "type": "function"
    },
    {
      "inputs": [
        {
          "internalType": "bytes4",
          "name": "interfaceId",
          "type": "bytes4"
        }
      ],
      "name": "supportsInterface",
      "outputs": [
        {
          "internalType": "bool",
          "name": "",
          "type": "bool"
        }
      ],
      "stateMutability": "view",
      "type": "function",
      "constant": true
    }
  ],
  "bytecode": "0x60806040523480156200001157600080fd5b506040516200002090620002d8565b604051809103906000f0801580156200003d573d6000803e3d6000fd5b50600160006101000a81548173ffffffffffffffffffffffffffffffffffffffff021916908373ffffffffffffffffffffffffffffffffffffffff1602179055506200008e6200015f60201b60201c565b600260006101000a81548173ffffffffffffffffffffffffffffffffffffffff021916908373ffffffffffffffffffffffffffffffffffffffff160217905550620001056000801b600260009054906101000a900473ffffffffffffffffffffffffffffffffffffffff166200016760201b60201c565b620001597fc959c297475598e40c71b7455404de9d31dd350a92ec7c0dead938a32e50c916600260009054906101000a900473ffffffffffffffffffffffffffffffffffffffff166200016760201b60201c565b620002e6565b600033905090565b6200017982826200017d60201b60201c565b5050565b6200018f82826200026e60201b60201c565b6200026a57600160008084815260200190815260200160002060000160008373ffffffffffffffffffffffffffffffffffffffff1673ffffffffffffffffffffffffffffffffffffffff16815260200190815260200160002060006101000a81548160ff0219169083151502179055506200020f6200015f60201b60201c565b73ffffffffffffffffffffffffffffffffffffffff168173ffffffffffffffffffffffffffffffffffffffff16837f2f8788117e7eff1d82e926ec794901d17c78024a50270940304540a733656f0d60405160405180910390a45b5050565b600080600084815260200190815260200160002060000160008373ffffffffffffffffffffffffffffffffffffffff1673ffffffffffffffffffffffffffffffffffffffff16815260200190815260200160002060009054906101000a900460ff16905092915050565b610dae806200136d83390190565b61107780620002f66000396000f3fe608060405234801561001057600080fd5b50600436106100a95760003560e01c806359aa866a1161007157806359aa866a1461016457806362ec16fe1461018257806391d14854146101a0578063a217fddf146101d0578063d547741f146101ee578063f5ff5c761461020a576100a9565b806301ffc9a7146100ae578063248a9ca3146100de5780632f2ff15d1461010e57806336568abe1461012a57806336acc9d714610146575b600080fd5b6100c860048036038101906100c39190610b07565b610228565b6040516100d59190610ca8565b60405180910390f35b6100f860048036038101906100f39190610aa2565b6102a2565b6040516101059190610cc3565b60405180910390f35b61012860048036038101906101239190610acb565b6102c1565b005b610144600480360381019061013f9190610acb565b6102ea565b005b61014e61036d565b60405161015b9190610cc3565b60405180910390f35b61016c610391565b6040516101799190610cc3565b60405180910390f35b61018a6103b5565b6040516101979190610cc3565b60405180910390f35b6101ba60048036038101906101b59190610acb565b6103d9565b6040516101c79190610ca8565b60405180910390f35b6101d8610443565b6040516101e59190610cc3565b60405180910390f35b61020860048036038101906102039190610acb565b61044a565b005b610212610473565b60405161021f9190610c8d565b60405180910390f35b60007f7965db0b000000000000000000000000000000000000000000000000000000007bffffffffffffffffffffffffffffffffffffffffffffffffffffffff1916827bffffffffffffffffffffffffffffffffffffffffffffffffffffffff1916148061029b575061029a82610499565b5b9050919050565b6000806000838152602001908152602001600020600101549050919050565b6102ca826102a2565b6102db816102d6610503565b61050b565b6102e583836105a8565b505050565b6102f2610503565b73ffffffffffffffffffffffffffffffffffffffff168173ffffffffffffffffffffffffffffffffffffffff161461035f576040517f08c379a000000000000000000000000000000000000000000000000000000000815260040161035690610d20565b60405180910390fd5b6103698282610688565b5050565b7fe26612c5510afef89e10b6aff738cfb69bec6429cf8054f395b13070dce3be7681565b7fc959c297475598e40c71b7455404de9d31dd350a92ec7c0dead938a32e50c91681565b7f31a0814d66f4dee9c8949a2c780e07508f08615f200ebf6524799b95ffbe151281565b600080600084815260200190815260200160002060000160008373ffffffffffffffffffffffffffffffffffffffff1673ffffffffffffffffffffffffffffffffffffffff16815260200190815260200160002060009054906101000a900460ff16905092915050565b6000801b81565b610453826102a2565b6104648161045f610503565b61050b565b61046e8383610688565b505050565b600260009054906101000a900473ffffffffffffffffffffffffffffffffffffffff1681565b60007f01ffc9a7000000000000000000000000000000000000000000000000000000007bffffffffffffffffffffffffffffffffffffffffffffffffffffffff1916827bffffffffffffffffffffffffffffffffffffffffffffffffffffffff1916149050919050565b600033905090565b61051582826103d9565b6105a45761053a8173ffffffffffffffffffffffffffffffffffffffff166014610769565b6105488360001c6020610769565b604051602001610559929190610c53565b6040516020818303038152906040526040517f08c379a000000000000000000000000000000000000000000000000000000000815260040161059b9190610cde565b60405180910390fd5b5050565b6105b282826103d9565b61068457600160008084815260200190815260200160002060000160008373ffffffffffffffffffffffffffffffffffffffff1673ffffffffffffffffffffffffffffffffffffffff16815260200190815260200160002060006101000a81548160ff021916908315150217905550610629610503565b73ffffffffffffffffffffffffffffffffffffffff168173ffffffffffffffffffffffffffffffffffffffff16837f2f8788117e7eff1d82e926ec794901d17c78024a50270940304540a733656f0d60405160405180910390a45b5050565b61069282826103d9565b1561076557600080600084815260200190815260200160002060000160008373ffffffffffffffffffffffffffffffffffffffff1673ffffffffffffffffffffffffffffffffffffffff16815260200190815260200160002060006101000a81548160ff02191690831515021790555061070a610503565b73ffffffffffffffffffffffffffffffffffffffff168173ffffffffffffffffffffffffffffffffffffffff16837ff6391f5c32d9c69d2a47ea670b442974b53935d1edc7fd64eb21e047a839171b60405160405180910390a45b5050565b60606000600283600261077c9190610dbd565b6107869190610d67565b67ffffffffffffffff8111156107c5577f4e487b7100000000000000000000000000000000000000000000000000000000600052604160045260246000fd5b6040519080825280601f01601f1916602001820160405280156107f75781602001600182028036833780820191505090505b5090507f300000000000000000000000000000000000000000000000000000000000000081600081518110610855577f4e487b7100000000000000000000000000000000000000000000000000000000600052603260045260246000fd5b60200101907effffffffffffffffffffffffffffffffffffffffffffffffffffffffffffff1916908160001a9053507f7800000000000000000000000000000000000000000000000000000000000000816001815181106108df577f4e487b7100000000000000000000000000000000000000000000000000000000600052603260045260246000fd5b60200101907effffffffffffffffffffffffffffffffffffffffffffffffffffffffffffff1916908160001a9053506000600184600261091f9190610dbd565b6109299190610d67565b90505b6001811115610a15577f3031323334353637383961626364656600000000000000000000000000000000600f861660108110610991577f4e487b7100000000000000000000000000000000000000000000000000000000600052603260045260246000fd5b1a60f81b8282815181106109ce577f4e487b7100000000000000000000000000000000000000000000000000000000600052603260045260246000fd5b60200101907effffffffffffffffffffffffffffffffffffffffffffffffffffffffffffff1916908160001a905350600485901c945080610a0e90610ec8565b905061092c565b5060008414610a59576040517f08c379a0000000000000000000000000000000000000000000000000000000008152600401610a5090610d00565b60405180910390fd5b8091505092915050565b600081359050610a7281610ffc565b92915050565b600081359050610a8781611013565b92915050565b600081359050610a9c8161102a565b92915050565b600060208284031215610ab457600080fd5b6000610ac284828501610a78565b91505092915050565b60008060408385031215610ade57600080fd5b6000610aec85828601610a78565b9250506020610afd85828601610a63565b9150509250929050565b600060208284031215610b1957600080fd5b6000610b2784828501610a8d565b91505092915050565b610b3981610e17565b82525050565b610b4881610e29565b82525050565b610b5781610e35565b82525050565b6000610b6882610d40565b610b728185610d4b565b9350610b82818560208601610e95565b610b8b81610f21565b840191505092915050565b6000610ba182610d40565b610bab8185610d5c565b9350610bbb818560208601610e95565b80840191505092915050565b6000610bd4602083610d4b565b9150610bdf82610f32565b602082019050919050565b6000610bf7601783610d5c565b9150610c0282610f5b565b601782019050919050565b6000610c1a601183610d5c565b9150610c2582610f84565b601182019050919050565b6000610c3d602f83610d4b565b9150610c4882610fad565b604082019050919050565b6000610c5e82610bea565b9150610c6a8285610b96565b9150610c7582610c0d565b9150610c818284610b96565b91508190509392505050565b6000602082019050610ca26000830184610b30565b92915050565b6000602082019050610cbd6000830184610b3f565b92915050565b6000602082019050610cd86000830184610b4e565b92915050565b60006020820190508181036000830152610cf88184610b5d565b905092915050565b60006020820190508181036000830152610d1981610bc7565b9050919050565b60006020820190508181036000830152610d3981610c30565b9050919050565b600081519050919050565b600082825260208201905092915050565b600081905092915050565b6000610d7282610e8b565b9150610d7d83610e8b565b9250827fffffffffffffffffffffffffffffffffffffffffffffffffffffffffffffffff03821115610db257610db1610ef2565b5b828201905092915050565b6000610dc882610e8b565b9150610dd383610e8b565b9250817fffffffffffffffffffffffffffffffffffffffffffffffffffffffffffffffff0483118215151615610e0c57610e0b610ef2565b5b828202905092915050565b6000610e2282610e6b565b9050919050565b60008115159050919050565b6000819050919050565b60007fffffffff0000000000000000000000000000000000000000000000000000000082169050919050565b600073ffffffffffffffffffffffffffffffffffffffff82169050919050565b6000819050919050565b60005b83811015610eb3578082015181840152602081019050610e98565b83811115610ec2576000848401525b50505050565b6000610ed382610e8b565b91506000821415610ee757610ee6610ef2565b5b600182039050919050565b7f4e487b7100000000000000000000000000000000000000000000000000000000600052601160045260246000fd5b6000601f19601f8301169050919050565b7f537472696e67733a20686578206c656e67746820696e73756666696369656e74600082015250565b7f416363657373436f6e74726f6c3a206163636f756e7420000000000000000000600082015250565b7f206973206d697373696e6720726f6c6520000000000000000000000000000000600082015250565b7f416363657373436f6e74726f6c3a2063616e206f6e6c792072656e6f756e636560008201527f20726f6c657320666f722073656c660000000000000000000000000000000000602082015250565b61100581610e17565b811461101057600080fd5b50565b61101c81610e35565b811461102757600080fd5b50565b61103381610e3f565b811461103e57600080fd5b5056fea264697066735822122089fd531634c8375c01afa1e3aa993261b49ab74221f69b09bd77c946925c301564736f6c63430008040033608060405234801561001057600080fd5b5060006100216100c460201b60201c565b9050806000806101000a81548173ffffffffffffffffffffffffffffffffffffffff021916908373ffffffffffffffffffffffffffffffffffffffff1602179055508073ffffffffffffffffffffffffffffffffffffffff16600073ffffffffffffffffffffffffffffffffffffffff167f8be0079c531659141344cd1fd0a4f28419497f9722a3daafe3b4186f6b6457e060405160405180910390a3506100cc565b600033905090565b610cd3806100db6000396000f3fe6080604052600436106100555760003560e01c806351cff8d91461005a578063715018a6146100835780638da5cb5b1461009a578063e3a9db1a146100c5578063f2fde38b14610102578063f340fa011461012b575b600080fd5b34801561006657600080fd5b50610081600480360381019061007c91906108cc565b610147565b005b34801561008f57600080fd5b506100986102c7565b005b3480156100a657600080fd5b506100af610401565b6040516100bc91906109d7565b60405180910390f35b3480156100d157600080fd5b506100ec60048036038101906100e791906108a3565b61042a565b6040516100f99190610a72565b60405180910390f35b34801561010e57600080fd5b50610129600480360381019061012491906108a3565b610473565b005b610145600480360381019061014091906108a3565b61061c565b005b61014f61077d565b73ffffffffffffffffffffffffffffffffffffffff1661016d610401565b73ffffffffffffffffffffffffffffffffffffffff16146101c3576040517f08c379a00000000000000000000000000000000000000000000000000000000081526004016101ba90610a52565b60405180910390fd5b6000600160008373ffffffffffffffffffffffffffffffffffffffff1673ffffffffffffffffffffffffffffffffffffffff1681526020019081526020016000205490506000600160008473ffffffffffffffffffffffffffffffffffffffff1673ffffffffffffffffffffffffffffffffffffffff16815260200190815260200160002081905550610275818373ffffffffffffffffffffffffffffffffffffffff1661078590919063ffffffff16565b8173ffffffffffffffffffffffffffffffffffffffff167f7084f5476618d8e60b11ef0d7d3f06914655adb8793e28ff7f018d4c76d505d5826040516102bb9190610a72565b60405180910390a25050565b6102cf61077d565b73ffffffffffffffffffffffffffffffffffffffff166102ed610401565b73ffffffffffffffffffffffffffffffffffffffff1614610343576040517f08c379a000000000000000000000000000000000000000000000000000000000815260040161033a90610a52565b60405180910390fd5b600073ffffffffffffffffffffffffffffffffffffffff1660008054906101000a900473ffffffffffffffffffffffffffffffffffffffff1673ffffffffffffffffffffffffffffffffffffffff167f8be0079c531659141344cd1fd0a4f28419497f9722a3daafe3b4186f6b6457e060405160405180910390a360008060006101000a81548173ffffffffffffffffffffffffffffffffffffffff021916908373ffffffffffffffffffffffffffffffffffffffff160217905550565b60008060009054906101000a900473ffffffffffffffffffffffffffffffffffffffff16905090565b6000600160008373ffffffffffffffffffffffffffffffffffffffff1673ffffffffffffffffffffffffffffffffffffffff168152602001908152602001600020549050919050565b61047b61077d565b73ffffffffffffffffffffffffffffffffffffffff16610499610401565b73ffffffffffffffffffffffffffffffffffffffff16146104ef576040517f08c379a00000000000000000000000000000000000000000000000000000000081526004016104e690610a52565b60405180910390fd5b600073ffffffffffffffffffffffffffffffffffffffff168173ffffffffffffffffffffffffffffffffffffffff16141561055f576040517f08c379a0000000000000000000000000000000000000000000000000000000008152600401610556906109f2565b60405180910390fd5b8073ffffffffffffffffffffffffffffffffffffffff1660008054906101000a900473ffffffffffffffffffffffffffffffffffffffff1673ffffffffffffffffffffffffffffffffffffffff167f8be0079c531659141344cd1fd0a4f28419497f9722a3daafe3b4186f6b6457e060405160405180910390a3806000806101000a81548173ffffffffffffffffffffffffffffffffffffffff021916908373ffffffffffffffffffffffffffffffffffffffff16021790555050565b61062461077d565b73ffffffffffffffffffffffffffffffffffffffff16610642610401565b73ffffffffffffffffffffffffffffffffffffffff1614610698576040517f08c379a000000000000000000000000000000000000000000000000000000000815260040161068f90610a52565b60405180910390fd5b600034905080600160008473ffffffffffffffffffffffffffffffffffffffff1673ffffffffffffffffffffffffffffffffffffffff168152602001908152602001600020546106e89190610aa9565b600160008473ffffffffffffffffffffffffffffffffffffffff1673ffffffffffffffffffffffffffffffffffffffff168152602001908152602001600020819055508173ffffffffffffffffffffffffffffffffffffffff167f2da466a7b24304f47e87fa2e1e5a81b9831ce54fec19055ce277ca2f39ba42c4826040516107719190610a72565b60405180910390a25050565b600033905090565b804710156107c8576040517f08c379a00000000000000000000000000000000000000000000000000000000081526004016107bf90610a32565b60405180910390fd5b60008273ffffffffffffffffffffffffffffffffffffffff16826040516107ee906109c2565b60006040518083038185875af1925050503d806000811461082b576040519150601f19603f3d011682016040523d82523d6000602084013e610830565b606091505b5050905080610874576040517f08c379a000000000000000000000000000000000000000000000000000000000815260040161086b90610a12565b60405180910390fd5b505050565b60008135905061088881610c6f565b92915050565b60008135905061089d81610c86565b92915050565b6000602082840312156108b557600080fd5b60006108c384828501610879565b91505092915050565b6000602082840312156108de57600080fd5b60006108ec8482850161088e565b91505092915050565b6108fe81610aff565b82525050565b6000610911602683610a98565b915061091c82610b7c565b604082019050919050565b6000610934603a83610a98565b915061093f82610bcb565b604082019050919050565b6000610957601d83610a98565b915061096282610c1a565b602082019050919050565b600061097a602083610a98565b915061098582610c43565b602082019050919050565b600061099d600083610a8d565b91506109a882610c6c565b600082019050919050565b6109bc81610b43565b82525050565b60006109cd82610990565b9150819050919050565b60006020820190506109ec60008301846108f5565b92915050565b60006020820190508181036000830152610a0b81610904565b9050919050565b60006020820190508181036000830152610a2b81610927565b9050919050565b60006020820190508181036000830152610a4b8161094a565b9050919050565b60006020820190508181036000830152610a6b8161096d565b9050919050565b6000602082019050610a8760008301846109b3565b92915050565b600081905092915050565b600082825260208201905092915050565b6000610ab482610b43565b9150610abf83610b43565b9250827fffffffffffffffffffffffffffffffffffffffffffffffffffffffffffffffff03821115610af457610af3610b4d565b5b828201905092915050565b6000610b0a82610b23565b9050919050565b6000610b1c82610b23565b9050919050565b600073ffffffffffffffffffffffffffffffffffffffff82169050919050565b6000819050919050565b7f4e487b7100000000000000000000000000000000000000000000000000000000600052601160045260246000fd5b7f4f776e61626c653a206e6577206f776e657220697320746865207a65726f206160008201527f6464726573730000000000000000000000000000000000000000000000000000602082015250565b7f416464726573733a20756e61626c6520746f2073656e642076616c75652c207260008201527f6563697069656e74206d61792068617665207265766572746564000000000000602082015250565b7f416464726573733a20696e73756666696369656e742062616c616e6365000000600082015250565b7f4f776e61626c653a2063616c6c6572206973206e6f7420746865206f776e6572600082015250565b50565b610c7881610aff565b8114610c8357600080fd5b50565b610c8f81610b11565b8114610c9a57600080fd5b5056fea26469706673582212208fe7af28d93a8d3480703b5839ec0d10b3ec8f105bd66de40694bea050cd810f64736f6c63430008040033",
  "immutableReferences": {},
  "source": "// SPDX-License-Identifier: MIT\r\npragma solidity ^0.8.4;\r\n\r\nimport \"@openzeppelin/contracts/utils/escrow/Escrow.sol\";\r\nimport \"@openzeppelin/contracts/utils/Address.sol\";\r\nimport \"@openzeppelin/contracts/access/AccessControl.sol\";\r\nimport \"@openzeppelin/contracts/utils/math/SafeMath.sol\";\r\n\r\ncontract EscrowGate is AccessControl {\r\n    using Address for address payable;\r\n    using SafeMath for uint256;\r\n\r\n    Escrow escrow;\r\n    address public agent;\r\n\r\n    bytes32 public constant SYSTEM_AGENT = keccak256(\"SYSTEM_AGENT\");\r\n    bytes32 public constant SYSTEM_BUYER = keccak256(\"SYSTEM_BUYER\");\r\n    bytes32 public constant SYSTEM_SELLER = keccak256(\"SYSTEM_SELLER\");\r\n\r\n    constructor() {\r\n        escrow = new Escrow();\r\n        agent = _msgSender();\r\n\r\n        _setupRole(DEFAULT_ADMIN_ROLE, agent);\r\n        _setupRole(SYSTEM_AGENT, agent);\r\n    }\r\n}\r\n",
  "sourcePath": "C:/Users/Administrator/Desktop/SCDP/escrow/contracts/EscrowGate.sol",
  "compiler": {
    "name": "solc",
    "version": "0.8.4+commit.c7e474f2.Emscripten.clang"
  },
  "schemaVersion": "3.4.1",
  "updatedAt": "2021-06-08T16:20:26.708Z",
  "networkType": "ethereum",
  "devdoc": {
    "kind": "dev",
    "methods": {
      "getRoleAdmin(bytes32)": {
        "details": "Returns the admin role that controls `role`. See {grantRole} and {revokeRole}. To change a role's admin, use {_setRoleAdmin}."
      },
      "grantRole(bytes32,address)": {
        "details": "Grants `role` to `account`. If `account` had not been already granted `role`, emits a {RoleGranted} event. Requirements: - the caller must have ``role``'s admin role."
      },
      "hasRole(bytes32,address)": {
        "details": "Returns `true` if `account` has been granted `role`."
      },
      "renounceRole(bytes32,address)": {
        "details": "Revokes `role` from the calling account. Roles are often managed via {grantRole} and {revokeRole}: this function's purpose is to provide a mechanism for accounts to lose their privileges if they are compromised (such as when a trusted device is misplaced). If the calling account had been granted `role`, emits a {RoleRevoked} event. Requirements: - the caller must be `account`."
      },
      "revokeRole(bytes32,address)": {
        "details": "Revokes `role` from `account`. If `account` had been granted `role`, emits a {RoleRevoked} event. Requirements: - the caller must have ``role``'s admin role."
      },
      "supportsInterface(bytes4)": {
        "details": "See {IERC165-supportsInterface}."
      }
    },
    "version": 1
  },
  "userdoc": {
    "kind": "user",
    "methods": {},
    "version": 1
  }
}