{
  "contractName": "Escrow",
  "abi": [
    {
      "inputs": [
        {
          "internalType": "address",
          "name": "_seller",
          "type": "address"
        },
        {
          "internalType": "uint256",
          "name": "_totalPrice",
          "type": "uint256"
        },
        {
          "internalType": "uint256",
          "name": "_percent",
          "type": "uint256"
        }
      ],
      "stateMutability": "nonpayable",
      "type": "constructor"
    },
    {
      "anonymous": false,
      "inputs": [
        {
          "indexed": true,
          "internalType": "address",
          "name": "previousOwner",
          "type": "address"
        },
        {
          "indexed": true,
          "internalType": "address",
          "name": "newOwner",
          "type": "address"
        }
      ],
      "name": "OwnershipTransferred",
      "type": "event"
    },
    {
      "inputs": [],
      "name": "buyer",
      "outputs": [
        {
          "internalType": "address",
          "name": "",
          "type": "address"
        }
      ],
      "stateMutability": "view",
      "type": "function"
    },
    {
      "inputs": [],
      "name": "owner",
      "outputs": [
        {
          "internalType": "address",
          "name": "",
          "type": "address"
        }
      ],
      "stateMutability": "view",
      "type": "function"
    },
    {
      "inputs": [],
      "name": "percent",
      "outputs": [
        {
          "internalType": "uint256",
          "name": "",
          "type": "uint256"
        }
      ],
      "stateMutability": "view",
      "type": "function"
    },
    {
      "inputs": [],
      "name": "renounceOwnership",
      "outputs": [],
      "stateMutability": "nonpayable",
      "type": "function"
    },
    {
      "inputs": [],
      "name": "seller",
      "outputs": [
        {
          "internalType": "address",
          "name": "",
          "type": "address"
        }
      ],
      "stateMutability": "view",
      "type": "function"
    },
    {
      "inputs": [],
      "name": "totalPrice",
      "outputs": [
        {
          "internalType": "uint256",
          "name": "",
          "type": "uint256"
        }
      ],
      "stateMutability": "view",
      "type": "function"
    },
    {
      "inputs": [
        {
          "internalType": "address",
          "name": "newOwner",
          "type": "address"
        }
      ],
      "name": "transferOwnership",
      "outputs": [],
      "stateMutability": "nonpayable",
      "type": "function"
    },
    {
      "inputs": [
        {
          "internalType": "address",
          "name": "_buyer",
          "type": "address"
        }
      ],
      "name": "buyItem",
      "outputs": [],
      "stateMutability": "payable",
      "type": "function"
    },
    {
      "inputs": [],
      "name": "withdraw",
      "outputs": [],
      "stateMutability": "nonpayable",
      "type": "function"
    }
  ],
  "bytecode": "0x60806040523480156200001157600080fd5b50604051620011f4380380620011f48339818101604052810190620000379190620001bb565b6000620000496200018560201b60201c565b9050806000806101000a81548173ffffffffffffffffffffffffffffffffffffffff021916908373ffffffffffffffffffffffffffffffffffffffff1602179055508073ffffffffffffffffffffffffffffffffffffffff16600073ffffffffffffffffffffffffffffffffffffffff167f8be0079c531659141344cd1fd0a4f28419497f9722a3daafe3b4186f6b6457e060405160405180910390a350606481106200012d576040517f08c379a0000000000000000000000000000000000000000000000000000000008152600401620001249062000238565b60405180910390fd5b82600260006101000a81548173ffffffffffffffffffffffffffffffffffffffff021916908373ffffffffffffffffffffffffffffffffffffffff160217905550816004819055508060038190555050505062000306565b600033905090565b6000815190506200019e81620002d2565b92915050565b600081519050620001b581620002ec565b92915050565b600080600060608486031215620001d157600080fd5b6000620001e1868287016200018d565b9350506020620001f486828701620001a4565b92505060406200020786828701620001a4565b9150509250925092565b6000620002206004836200025a565b91506200022d82620002a9565b602082019050919050565b60006020820190508181036000830152620002538162000211565b9050919050565b600082825260208201905092915050565b600062000278826200027f565b9050919050565b600073ffffffffffffffffffffffffffffffffffffffff82169050919050565b6000819050919050565b7f21616c6c00000000000000000000000000000000000000000000000000000000600082015250565b620002dd816200026b565b8114620002e957600080fd5b50565b620002f7816200029f565b81146200030357600080fd5b50565b610ede80620003166000396000f3fe6080604052600436106100865760003560e01c80637150d8ae116100595780637150d8ae1461010f5780638da5cb5b1461013a578063ab0d92dd14610165578063dd62b03914610190578063f2fde38b146101ac57610086565b806308551a531461008b5780633ccfd60b146100b657806370ba1113146100cd578063715018a6146100f8575b600080fd5b34801561009757600080fd5b506100a06101d5565b6040516100ad9190610a98565b60405180910390f35b3480156100c257600080fd5b506100cb6101fb565b005b3480156100d957600080fd5b506100e261038f565b6040516100ef9190610b93565b60405180910390f35b34801561010457600080fd5b5061010d610395565b005b34801561011b57600080fd5b506101246104cf565b6040516101319190610a98565b60405180910390f35b34801561014657600080fd5b5061014f6104f5565b60405161015c9190610a98565b60405180910390f35b34801561017157600080fd5b5061017a61051e565b6040516101879190610b93565b60405180910390f35b6101aa60048036038101906101a59190610924565b610524565b005b3480156101b857600080fd5b506101d360048036038101906101ce9190610924565b610628565b005b600260009054906101000a900473ffffffffffffffffffffffffffffffffffffffff1681565b6102036107d1565b73ffffffffffffffffffffffffffffffffffffffff166102216104f5565b73ffffffffffffffffffffffffffffffffffffffff1614610277576040517f08c379a000000000000000000000000000000000000000000000000000000000815260040161026e90610b73565b60405180910390fd5b6000479050600081116102bf576040517f08c379a00000000000000000000000000000000000000000000000000000000081526004016102b690610ad3565b60405180910390fd5b60006102e960646102db600354856107d990919063ffffffff16565b6107ef90919063ffffffff16565b90506000811161032e576040517f08c379a000000000000000000000000000000000000000000000000000000000815260040161032590610af3565b60405180910390fd5b61038b610344828461080590919063ffffffff16565b600260009054906101000a900473ffffffffffffffffffffffffffffffffffffffff1673ffffffffffffffffffffffffffffffffffffffff1661081b90919063ffffffff16565b5050565b60035481565b61039d6107d1565b73ffffffffffffffffffffffffffffffffffffffff166103bb6104f5565b73ffffffffffffffffffffffffffffffffffffffff1614610411576040517f08c379a000000000000000000000000000000000000000000000000000000000815260040161040890610b73565b60405180910390fd5b600073ffffffffffffffffffffffffffffffffffffffff1660008054906101000a900473ffffffffffffffffffffffffffffffffffffffff1673ffffffffffffffffffffffffffffffffffffffff167f8be0079c531659141344cd1fd0a4f28419497f9722a3daafe3b4186f6b6457e060405160405180910390a360008060006101000a81548173ffffffffffffffffffffffffffffffffffffffff021916908373ffffffffffffffffffffffffffffffffffffffff160217905550565b600160009054906101000a900473ffffffffffffffffffffffffffffffffffffffff1681565b60008060009054906101000a900473ffffffffffffffffffffffffffffffffffffffff16905090565b60045481565b61052c6107d1565b73ffffffffffffffffffffffffffffffffffffffff1661054a6104f5565b73ffffffffffffffffffffffffffffffffffffffff16146105a0576040517f08c379a000000000000000000000000000000000000000000000000000000000815260040161059790610b73565b60405180910390fd5b60045434146105e4576040517f08c379a00000000000000000000000000000000000000000000000000000000081526004016105db90610b13565b60405180910390fd5b80600160006101000a81548173ffffffffffffffffffffffffffffffffffffffff021916908373ffffffffffffffffffffffffffffffffffffffff16021790555050565b6106306107d1565b73ffffffffffffffffffffffffffffffffffffffff1661064e6104f5565b73ffffffffffffffffffffffffffffffffffffffff16146106a4576040517f08c379a000000000000000000000000000000000000000000000000000000000815260040161069b90610b73565b60405180910390fd5b600073ffffffffffffffffffffffffffffffffffffffff168173ffffffffffffffffffffffffffffffffffffffff161415610714576040517f08c379a000000000000000000000000000000000000000000000000000000000815260040161070b90610ab3565b60405180910390fd5b8073ffffffffffffffffffffffffffffffffffffffff1660008054906101000a900473ffffffffffffffffffffffffffffffffffffffff1673ffffffffffffffffffffffffffffffffffffffff167f8be0079c531659141344cd1fd0a4f28419497f9722a3daafe3b4186f6b6457e060405160405180910390a3806000806101000a81548173ffffffffffffffffffffffffffffffffffffffff021916908373ffffffffffffffffffffffffffffffffffffffff16021790555050565b600033905090565b600081836107e79190610bfb565b905092915050565b600081836107fd9190610bca565b905092915050565b600081836108139190610c55565b905092915050565b8047101561085e576040517f08c379a000000000000000000000000000000000000000000000000000000000815260040161085590610b53565b60405180910390fd5b60008273ffffffffffffffffffffffffffffffffffffffff168260405161088490610a83565b60006040518083038185875af1925050503d80600081146108c1576040519150601f19603f3d011682016040523d82523d6000602084013e6108c6565b606091505b505090508061090a576040517f08c379a000000000000000000000000000000000000000000000000000000000815260040161090190610b33565b60405180910390fd5b505050565b60008135905061091e81610e91565b92915050565b60006020828403121561093657600080fd5b60006109448482850161090f565b91505092915050565b61095681610c89565b82525050565b6000610969602683610bb9565b915061097482610d23565b604082019050919050565b600061098c600883610bb9565b915061099782610d72565b602082019050919050565b60006109af600483610bb9565b91506109ba82610d9b565b602082019050919050565b60006109d2600b83610bb9565b91506109dd82610dc4565b602082019050919050565b60006109f5603a83610bb9565b9150610a0082610ded565b604082019050919050565b6000610a18601d83610bb9565b9150610a2382610e3c565b602082019050919050565b6000610a3b602083610bb9565b9150610a4682610e65565b602082019050919050565b6000610a5e600083610bae565b9150610a6982610e8e565b600082019050919050565b610a7d81610cbb565b82525050565b6000610a8e82610a51565b9150819050919050565b6000602082019050610aad600083018461094d565b92915050565b60006020820190508181036000830152610acc8161095c565b9050919050565b60006020820190508181036000830152610aec8161097f565b9050919050565b60006020820190508181036000830152610b0c816109a2565b9050919050565b60006020820190508181036000830152610b2c816109c5565b9050919050565b60006020820190508181036000830152610b4c816109e8565b9050919050565b60006020820190508181036000830152610b6c81610a0b565b9050919050565b60006020820190508181036000830152610b8c81610a2e565b9050919050565b6000602082019050610ba86000830184610a74565b92915050565b600081905092915050565b600082825260208201905092915050565b6000610bd582610cbb565b9150610be083610cbb565b925082610bf057610bef610cf4565b5b828204905092915050565b6000610c0682610cbb565b9150610c1183610cbb565b9250817fffffffffffffffffffffffffffffffffffffffffffffffffffffffffffffffff0483118215151615610c4a57610c49610cc5565b5b828202905092915050565b6000610c6082610cbb565b9150610c6b83610cbb565b925082821015610c7e57610c7d610cc5565b5b828203905092915050565b6000610c9482610c9b565b9050919050565b600073ffffffffffffffffffffffffffffffffffffffff82169050919050565b6000819050919050565b7f4e487b7100000000000000000000000000000000000000000000000000000000600052601160045260246000fd5b7f4e487b7100000000000000000000000000000000000000000000000000000000600052601260045260246000fd5b7f4f776e61626c653a206e6577206f776e657220697320746865207a65726f206160008201527f6464726573730000000000000000000000000000000000000000000000000000602082015250565b7f2162616c616e6365000000000000000000000000000000000000000000000000600082015250565b7f2166656500000000000000000000000000000000000000000000000000000000600082015250565b7f21746f74616c5072696365000000000000000000000000000000000000000000600082015250565b7f416464726573733a20756e61626c6520746f2073656e642076616c75652c207260008201527f6563697069656e74206d61792068617665207265766572746564000000000000602082015250565b7f416464726573733a20696e73756666696369656e742062616c616e6365000000600082015250565b7f4f776e61626c653a2063616c6c6572206973206e6f7420746865206f776e6572600082015250565b50565b610e9a81610c89565b8114610ea557600080fd5b5056fea26469706673582212206863d56c88651bb0857539c21e47ad99adb2300211dfb2d1b5cd5993291f234764736f6c63430008040033",
  "immutableReferences": {},
  "source": "// SPDX-License-Identifier: MIT\r\npragma solidity ^0.8.4;\r\n\r\nimport \"@openzeppelin/contracts/utils/math/SafeMath.sol\";\r\nimport \"@openzeppelin/contracts/utils/Address.sol\";\r\nimport \"@openzeppelin/contracts/access/Ownable.sol\";\r\n\r\ncontract Escrow is Ownable {\r\n    using SafeMath for uint256;\r\n    using Address for address payable;\r\n\r\n    address public buyer;\r\n    address public seller;\r\n    uint256 public percent;\r\n    uint256 public totalPrice;\r\n\r\n    constructor(\r\n        address _seller,\r\n        uint256 _totalPrice,\r\n        uint256 _percent\r\n    ) {\r\n        require(_percent < 100, \"!all\");\r\n\r\n        seller = _seller;\r\n        totalPrice = _totalPrice;\r\n        percent = _percent;\r\n    }\r\n\r\n    function buyItem(address _buyer) external payable onlyOwner {\r\n        //buyer must send the exact price defined by the seller\r\n        require(msg.value == totalPrice, \"!totalPrice\");\r\n        buyer = _buyer;\r\n    }\r\n\r\n    function withdraw() external onlyOwner {\r\n        uint256 totalDeposit = address(this).balance;\r\n        require(totalDeposit > 0, \"!balance\");\r\n\r\n        uint256 agentFee = totalDeposit.mul(percent).div(100);\r\n        require(agentFee > 0, \"!fee\");\r\n\r\n        //subtract the agent's fee, and send the rest to the seller\r\n        payable(seller).sendValue(totalDeposit.sub(agentFee));\r\n    }\r\n}\r\n",
  "sourcePath": "C:/Users/Administrator/Desktop/SCDP/escrow/contracts/Escrow.sol",
  "compiler": {
    "name": "solc",
    "version": "0.8.4+commit.c7e474f2.Emscripten.clang"
  },
  "schemaVersion": "3.4.1",
  "updatedAt": "2021-06-09T01:52:44.404Z",
  "devdoc": {
    "kind": "dev",
    "methods": {
      "owner()": {
        "details": "Returns the address of the current owner."
      },
      "renounceOwnership()": {
        "details": "Leaves the contract without owner. It will not be possible to call `onlyOwner` functions anymore. Can only be called by the current owner. NOTE: Renouncing ownership will leave the contract without an owner, thereby removing any functionality that is only available to the owner."
      },
      "transferOwnership(address)": {
        "details": "Transfers ownership of the contract to a new account (`newOwner`). Can only be called by the current owner."
      }
    },
    "version": 1
  },
  "userdoc": {
    "kind": "user",
    "methods": {},
    "version": 1
  }
}